

Microchip Technology PIC LITE Macro Assembler V1.45 build -152302408 
                                                                                               Sat Sep 01 13:03:13 2018

Microchip Technology Omniscient Code Generator v1.45 (Free mode) build 201711160504
     1                           	processor	16F1526
     2                           	opt	pw 120
     3                           	opt	lm
     4                           	psect	idataCOMMON,global,class=CODE,delta=2
     5                           	psect	idataBANK0,global,class=CODE,delta=2
     6                           	psect	idataBANK1,global,class=CODE,delta=2
     7                           	psect	idataBANK2,global,class=CODE,delta=2
     8                           	psect	idataBANK3,global,class=CODE,delta=2
     9                           	psect	nvBANK1,global,class=BANK1,space=1,delta=1
    10                           	psect	stringtext1,global,class=STRCODE,delta=2
    11                           	psect	stringtext2,global,class=STRCODE,delta=2
    12                           	psect	cinit,global,class=CODE,merge=1,delta=2
    13                           	psect	dataCOMMON,global,class=COMMON,space=1,delta=1
    14                           	psect	bssBANK0,global,class=BANK0,space=1,delta=1
    15                           	psect	dataBANK0,global,class=BANK0,space=1,delta=1
    16                           	psect	bssBANK1,global,class=BANK1,space=1,delta=1
    17                           	psect	dataBANK1,global,class=BANK1,space=1,delta=1
    18                           	psect	dataBANK2,global,class=BANK2,space=1,delta=1
    19                           	psect	dataBANK3,global,class=BANK3,space=1,delta=1
    20                           	psect	inittext,global,class=CODE,delta=2
    21                           	psect	clrtext,global,class=CODE,delta=2
    22                           	psect	cstackBANK2,global,class=BANK2,space=1,delta=1
    23                           	psect	cstackCOMMON,global,class=COMMON,space=1,delta=1
    24                           	psect	cstackBANK0,global,class=BANK0,space=1,delta=1
    25                           	psect	maintext,global,class=CODE,merge=1,split=1,delta=2
    26                           	psect	text1,local,class=CODE,merge=1,delta=2
    27                           	psect	text2,local,class=CODE,merge=1,delta=2
    28                           	psect	text3,local,class=CODE,merge=1,delta=2
    29                           	psect	text4,local,class=CODE,merge=1,delta=2
    30                           	psect	text5,local,class=CODE,merge=1,delta=2
    31                           	psect	text6,local,class=CODE,merge=1,delta=2
    32                           	psect	text7,local,class=CODE,merge=1,delta=2,group=1
    33                           	psect	text8,local,class=CODE,merge=1,delta=2,group=1
    34                           	psect	text9,local,class=CODE,merge=1,delta=2,group=1
    35                           	psect	text10,local,class=CODE,merge=1,delta=2
    36                           	psect	text11,local,class=CODE,merge=1,delta=2
    37                           	psect	text12,local,class=CODE,merge=1,delta=2
    38                           	psect	text13,local,class=CODE,merge=1,delta=2
    39                           	psect	text14,local,class=CODE,merge=1,delta=2
    40                           	psect	text15,local,class=CODE,merge=1,delta=2
    41                           	psect	text16,local,class=CODE,merge=1,delta=2
    42                           	psect	text17,local,class=CODE,merge=1,delta=2
    43                           	psect	intentry,global,class=CODE,delta=2
    44                           	psect	text19,local,class=CODE,merge=1,delta=2
    45                           	dabs	1,0x7E,2
    46  0000                     
    47                           ; Version 1.45
    48                           ; Generated 16/11/2017 GMT
    49                           ; 
    50                           ; Copyright © 2017, Microchip Technology Inc. and its subsidiaries ("Microchip")
    51                           ; All rights reserved.
    52                           ; 
    53                           ; This software is developed by Microchip Technology Inc. and its subsidiaries ("Microch
      +                          ip").
    54                           ; 
    55                           ; Redistribution and use in source and binary forms, with or without modification, are
    56                           ; permitted provided that the following conditions are met:
    57                           ; 
    58                           ;     1. Redistributions of source code must retain the above copyright notice, this lis
      +                          t of
    59                           ;        conditions and the following disclaimer.
    60                           ; 
    61                           ;     2. Redistributions in binary form must reproduce the above copyright notice, this 
      +                          list
    62                           ;        of conditions and the following disclaimer in the documentation and/or other
    63                           ;        materials provided with the distribution.
    64                           ; 
    65                           ;     3. Microchip's name may not be used to endorse or promote products derived from th
      +                          is
    66                           ;        software without specific prior written permission.
    67                           ; 
    68                           ; THIS SOFTWARE IS PROVIDED BY MICROCHIP "AS IS" AND ANY EXPRESS OR IMPLIED WARRANTIES,
    69                           ; INCLUDING, BUT NOT LIMITED TO, THE IMPLIED WARRANTIES OF MERCHANTABILITY AND FITNESS F
      +                          OR
    70                           ; PURPOSE ARE DISCLAIMED.  IN NO EVENT SHALL MICROCHIP BE LIABLE FOR ANY DIRECT, INDIREC
      +                          T,
    71                           ; INCIDENTAL, SPECIAL, EXEMPLARY, OR CONSEQUENTIAL DAMAGES (INCLUDING BUT NOT LIMITED TO
    72                           ; PROCUREMENT OF SUBSTITUTE GOODS OR SERVICES; LOSS OF USE, DATA OR PROFITS; OR BUSINESS
    73                           ; INTERRUPTION) HOWSOEVER CAUSED AND ON ANY THEORY OF LIABILITY, WHETHER IN CONTRACT, ST
      +                          RICT
    74                           ; LIABILITY, OR TORT (INCLUDING NEGLIGENCE OR OTHERWISE) ARISING IN ANY WAY OUT OF THE U
      +                          SE OF
    75                           ; THIS SOFTWARE, EVEN IF ADVISED OF THE POSSIBILITY OF SUCH DAMAGE.
    76                           ; 
    77                           ; 
    78                           ; Code-generator required, PIC16F1526 Definitions
    79                           ; 
    80                           ; SFR Addresses
    81  0000                     	;# 
    82  0001                     	;# 
    83  0002                     	;# 
    84  0003                     	;# 
    85  0004                     	;# 
    86  0005                     	;# 
    87  0006                     	;# 
    88  0007                     	;# 
    89  0008                     	;# 
    90  0009                     	;# 
    91  000A                     	;# 
    92  000B                     	;# 
    93  000C                     	;# 
    94  000D                     	;# 
    95  000E                     	;# 
    96  000F                     	;# 
    97  0010                     	;# 
    98  0011                     	;# 
    99  0012                     	;# 
   100  0013                     	;# 
   101  0014                     	;# 
   102  0015                     	;# 
   103  0016                     	;# 
   104  0016                     	;# 
   105  0017                     	;# 
   106  0018                     	;# 
   107  0019                     	;# 
   108  001A                     	;# 
   109  001B                     	;# 
   110  001C                     	;# 
   111  008C                     	;# 
   112  008D                     	;# 
   113  008E                     	;# 
   114  008F                     	;# 
   115  0090                     	;# 
   116  0091                     	;# 
   117  0092                     	;# 
   118  0093                     	;# 
   119  0094                     	;# 
   120  0095                     	;# 
   121  0096                     	;# 
   122  0097                     	;# 
   123  0099                     	;# 
   124  009A                     	;# 
   125  009B                     	;# 
   126  009B                     	;# 
   127  009C                     	;# 
   128  009D                     	;# 
   129  009E                     	;# 
   130  010C                     	;# 
   131  010D                     	;# 
   132  010E                     	;# 
   133  010F                     	;# 
   134  0110                     	;# 
   135  0116                     	;# 
   136  0117                     	;# 
   137  011D                     	;# 
   138  018C                     	;# 
   139  018D                     	;# 
   140  018F                     	;# 
   141  0190                     	;# 
   142  0191                     	;# 
   143  0191                     	;# 
   144  0192                     	;# 
   145  0193                     	;# 
   146  0193                     	;# 
   147  0194                     	;# 
   148  0195                     	;# 
   149  0196                     	;# 
   150  0197                     	;# 
   151  0199                     	;# 
   152  0199                     	;# 
   153  0199                     	;# 
   154  019A                     	;# 
   155  019A                     	;# 
   156  019A                     	;# 
   157  019B                     	;# 
   158  019B                     	;# 
   159  019B                     	;# 
   160  019B                     	;# 
   161  019B                     	;# 
   162  019C                     	;# 
   163  019C                     	;# 
   164  019C                     	;# 
   165  019D                     	;# 
   166  019D                     	;# 
   167  019D                     	;# 
   168  019E                     	;# 
   169  019E                     	;# 
   170  019E                     	;# 
   171  019F                     	;# 
   172  019F                     	;# 
   173  019F                     	;# 
   174  020D                     	;# 
   175  020F                     	;# 
   176  0210                     	;# 
   177  0211                     	;# 
   178  0211                     	;# 
   179  0212                     	;# 
   180  0212                     	;# 
   181  0213                     	;# 
   182  0213                     	;# 
   183  0214                     	;# 
   184  0214                     	;# 
   185  0215                     	;# 
   186  0215                     	;# 
   187  0215                     	;# 
   188  0216                     	;# 
   189  0216                     	;# 
   190  0217                     	;# 
   191  0217                     	;# 
   192  0219                     	;# 
   193  021A                     	;# 
   194  021B                     	;# 
   195  021C                     	;# 
   196  021D                     	;# 
   197  021E                     	;# 
   198  021F                     	;# 
   199  028C                     	;# 
   200  028D                     	;# 
   201  0291                     	;# 
   202  0291                     	;# 
   203  0292                     	;# 
   204  0293                     	;# 
   205  0298                     	;# 
   206  0298                     	;# 
   207  0299                     	;# 
   208  029A                     	;# 
   209  029D                     	;# 
   210  029E                     	;# 
   211  029F                     	;# 
   212  030C                     	;# 
   213  030D                     	;# 
   214  0311                     	;# 
   215  0311                     	;# 
   216  0312                     	;# 
   217  0313                     	;# 
   218  0318                     	;# 
   219  0318                     	;# 
   220  0319                     	;# 
   221  031A                     	;# 
   222  031C                     	;# 
   223  031C                     	;# 
   224  031D                     	;# 
   225  031E                     	;# 
   226  038C                     	;# 
   227  038D                     	;# 
   228  0394                     	;# 
   229  0395                     	;# 
   230  0396                     	;# 
   231  040C                     	;# 
   232  040D                     	;# 
   233  0411                     	;# 
   234  0411                     	;# 
   235  0412                     	;# 
   236  0413                     	;# 
   237  0414                     	;# 
   238  0415                     	;# 
   239  0416                     	;# 
   240  0417                     	;# 
   241  0418                     	;# 
   242  0418                     	;# 
   243  0419                     	;# 
   244  041A                     	;# 
   245  041B                     	;# 
   246  041C                     	;# 
   247  041D                     	;# 
   248  041E                     	;# 
   249  048D                     	;# 
   250  0491                     	;# 
   251  0491                     	;# 
   252  0492                     	;# 
   253  0492                     	;# 
   254  0493                     	;# 
   255  0493                     	;# 
   256  0493                     	;# 
   257  0494                     	;# 
   258  0494                     	;# 
   259  0495                     	;# 
   260  0495                     	;# 
   261  0496                     	;# 
   262  0496                     	;# 
   263  0497                     	;# 
   264  0497                     	;# 
   265  0595                     	;# 
   266  0596                     	;# 
   267  0597                     	;# 
   268  059C                     	;# 
   269  059D                     	;# 
   270  059E                     	;# 
   271  0611                     	;# 
   272  0611                     	;# 
   273  0612                     	;# 
   274  0613                     	;# 
   275  0614                     	;# 
   276  0614                     	;# 
   277  0615                     	;# 
   278  0616                     	;# 
   279  0617                     	;# 
   280  0617                     	;# 
   281  0618                     	;# 
   282  0619                     	;# 
   283  061A                     	;# 
   284  061A                     	;# 
   285  061B                     	;# 
   286  061C                     	;# 
   287  061D                     	;# 
   288  061D                     	;# 
   289  061E                     	;# 
   290  061F                     	;# 
   291  0FE4                     	;# 
   292  0FE5                     	;# 
   293  0FE6                     	;# 
   294  0FE7                     	;# 
   295  0FE8                     	;# 
   296  0FE9                     	;# 
   297  0FEA                     	;# 
   298  0FEB                     	;# 
   299  0FED                     	;# 
   300  0FEE                     	;# 
   301  0FEF                     	;# 
   302                           
   303                           	psect	idataCOMMON
   304  07F6                     __pidataCOMMON:	
   305                           
   306                           ;initializer for _levelofDimmer_MSB
   307  07F6  3430               	retlw	48
   308                           
   309                           ;initializer for _ErrorNames
   310  07F7  3423               	retlw	35
   311  07F8  3423               	retlw	35
   312  07F9  3423               	retlw	35
   313  07FA  3423               	retlw	35
   314  07FB  3400               	retlw	0
   315                           
   316                           	psect	idataBANK0
   317  09F9                     __pidataBANK0:	
   318                           
   319                           ;initializer for applianceControl@F3791
   320  09F9  3423               	retlw	35
   321  09FA  3400               	retlw	0
   322                           
   323                           ;initializer for applianceControl@F3789
   324  09FB  3423               	retlw	35
   325  09FC  3400               	retlw	0
   326                           
   327                           ;initializer for _levelofDimmer_LSB
   328  09FD  3430               	retlw	48
   329                           
   330                           	psect	idataBANK1
   331  0751                     __pidataBANK1:	
   332                           
   333                           ;initializer for _touchpanleReceivedDatabuffer
   334  0751  3423               	retlw	35
   335  0752  3400               	retlw	0
   336  0753  3400               	retlw	0
   337  0754  3400               	retlw	0
   338  0755  3400               	retlw	0
   339  0756  3400               	retlw	0
   340  0757  3400               	retlw	0
   341  0758  3400               	retlw	0
   342  0759  3400               	retlw	0
   343  075A  3400               	retlw	0
   344  075B  3400               	retlw	0
   345  075C  3400               	retlw	0
   346  075D  3400               	retlw	0
   347  075E  3400               	retlw	0
   348  075F  3400               	retlw	0
   349  0760  3400               	retlw	0
   350                           
   351                           ;initializer for _copy_parentalLockBuffer
   352  0761  3430               	retlw	48
   353  0762  3430               	retlw	48
   354  0763  3430               	retlw	48
   355  0764  3430               	retlw	48
   356  0765  3430               	retlw	48
   357  0766  3430               	retlw	48
   358  0767  3430               	retlw	48
   359  0768  3430               	retlw	48
   360  0769  3430               	retlw	48
   361  076A  3430               	retlw	48
   362  076B  3400               	retlw	0
   363  076C  3400               	retlw	0
   364  076D  3400               	retlw	0
   365  076E  3400               	retlw	0
   366  076F  3400               	retlw	0
   367  0770  3400               	retlw	0
   368                           
   369                           ;initializer for _parentalLockBuffer
   370  0771  3430               	retlw	48
   371  0772  3430               	retlw	48
   372  0773  3430               	retlw	48
   373  0774  3430               	retlw	48
   374  0775  3430               	retlw	48
   375  0776  3430               	retlw	48
   376  0777  3430               	retlw	48
   377  0778  3430               	retlw	48
   378  0779  3430               	retlw	48
   379  077A  3430               	retlw	48
   380  077B  3400               	retlw	0
   381  077C  3400               	retlw	0
   382  077D  3400               	retlw	0
   383  077E  3400               	retlw	0
   384  077F  3400               	retlw	0
   385  0780  3400               	retlw	0
   386                           
   387                           ;initializer for _tempReceiveTouchpanelDataBuffer
   388  0781  3423               	retlw	35
   389  0782  3400               	retlw	0
   390  0783  3400               	retlw	0
   391  0784  3400               	retlw	0
   392  0785  3400               	retlw	0
   393  0786  3400               	retlw	0
   394  0787  3400               	retlw	0
   395  0788  3400               	retlw	0
   396                           
   397                           	psect	idataBANK2
   398  0789                     __pidataBANK2:	
   399                           
   400                           ;initializer for _mainReceivedDataBuffer
   401  0789  3423               	retlw	35
   402  078A  3400               	retlw	0
   403  078B  3400               	retlw	0
   404  078C  3400               	retlw	0
   405  078D  3400               	retlw	0
   406  078E  3400               	retlw	0
   407  078F  3400               	retlw	0
   408  0790  3400               	retlw	0
   409  0791  3400               	retlw	0
   410  0792  3400               	retlw	0
   411  0793  3400               	retlw	0
   412  0794  3400               	retlw	0
   413  0795  3400               	retlw	0
   414  0796  3400               	retlw	0
   415  0797  3400               	retlw	0
   416  0798  3400               	retlw	0
   417  0799  3400               	retlw	0
   418  079A  3400               	retlw	0
   419  079B  3400               	retlw	0
   420  079C  3400               	retlw	0
   421  079D  3400               	retlw	0
   422  079E  3400               	retlw	0
   423  079F  3400               	retlw	0
   424  07A0  3400               	retlw	0
   425  07A1  3400               	retlw	0
   426  07A2  3400               	retlw	0
   427  07A3  3400               	retlw	0
   428  07A4  3400               	retlw	0
   429  07A5  3400               	retlw	0
   430  07A6  3400               	retlw	0
   431  07A7  3400               	retlw	0
   432  07A8  3400               	retlw	0
   433                           
   434                           ;initializer for _tempReceivedDataBuffer
   435  07A9  3423               	retlw	35
   436  07AA  3400               	retlw	0
   437  07AB  3400               	retlw	0
   438  07AC  3400               	retlw	0
   439  07AD  3400               	retlw	0
   440  07AE  3400               	retlw	0
   441  07AF  3400               	retlw	0
   442  07B0  3400               	retlw	0
   443  07B1  3400               	retlw	0
   444  07B2  3400               	retlw	0
   445  07B3  3400               	retlw	0
   446  07B4  3400               	retlw	0
   447  07B5  3400               	retlw	0
   448  07B6  3400               	retlw	0
   449  07B7  3400               	retlw	0
   450  07B8  3400               	retlw	0
   451  07B9  3400               	retlw	0
   452  07BA  3400               	retlw	0
   453  07BB  3400               	retlw	0
   454  07BC  3400               	retlw	0
   455  07BD  3400               	retlw	0
   456  07BE  3400               	retlw	0
   457  07BF  3400               	retlw	0
   458  07C0  3400               	retlw	0
   459                           
   460                           	psect	idataBANK3
   461  070F                     __pidataBANK3:	
   462                           
   463                           ;initializer for _currentStateBuffer
   464  070F  3423               	retlw	35
   465  0710  3400               	retlw	0
   466  0711  3400               	retlw	0
   467  0712  3400               	retlw	0
   468  0713  3400               	retlw	0
   469  0714  3400               	retlw	0
   470  0715  3400               	retlw	0
   471  0716  3400               	retlw	0
   472  0717  3400               	retlw	0
   473  0718  3400               	retlw	0
   474  0719  3400               	retlw	0
   475  071A  3400               	retlw	0
   476  071B  3400               	retlw	0
   477  071C  3400               	retlw	0
   478  071D  3400               	retlw	0
   479  071E  3400               	retlw	0
   480  071F  3400               	retlw	0
   481  0720  3400               	retlw	0
   482  0721  3400               	retlw	0
   483  0722  3400               	retlw	0
   484  0723  3400               	retlw	0
   485  0724  3400               	retlw	0
   486  0725  3400               	retlw	0
   487  0726  3400               	retlw	0
   488  0727  3400               	retlw	0
   489  0728  3400               	retlw	0
   490  0729  3400               	retlw	0
   491  072A  3400               	retlw	0
   492  072B  3400               	retlw	0
   493  072C  3400               	retlw	0
   494  072D  3400               	retlw	0
   495  072E  3400               	retlw	0
   496  072F  3400               	retlw	0
   497  0730  3400               	retlw	0
   498  0731  3400               	retlw	0
   499  0732  3400               	retlw	0
   500  0733  3400               	retlw	0
   501  0734  3400               	retlw	0
   502  0735  3400               	retlw	0
   503  0736  3400               	retlw	0
   504  0737  3400               	retlw	0
   505  0738  3400               	retlw	0
   506  0739  3400               	retlw	0
   507  073A  3400               	retlw	0
   508  073B  3400               	retlw	0
   509  073C  3400               	retlw	0
   510  073D  3400               	retlw	0
   511  073E  3400               	retlw	0
   512  073F  3400               	retlw	0
   513  0740  3400               	retlw	0
   514  0741  3400               	retlw	0
   515  0742  3400               	retlw	0
   516  0743  3400               	retlw	0
   517  0744  3400               	retlw	0
   518  0745  3400               	retlw	0
   519  0746  3400               	retlw	0
   520  0747  3400               	retlw	0
   521  0748  3400               	retlw	0
   522  0749  3400               	retlw	0
   523  074A  3400               	retlw	0
   524  074B  3400               	retlw	0
   525  074C  3400               	retlw	0
   526  074D  3400               	retlw	0
   527  074E  3400               	retlw	0
   528  074F  3400               	retlw	0
   529  0750  3400               	retlw	0
   530                           
   531                           	psect	nvBANK1
   532  00E4                     __pnvBANK1:	
   533  00E4                     _R5:	
   534  00E4                     	ds	2
   535  00E6                     _R4:	
   536  00E6                     	ds	2
   537  00E8                     _R3:	
   538  00E8                     	ds	2
   539  00EA                     _R2:	
   540  00EA                     	ds	2
   541  00EC                     _R1:	
   542  00EC                     	ds	2
   543  000C                     _PORTAbits	set	12
   544  005E                     _PEIE	set	94
   545  005F                     _GIE	set	95
   546  0062                     _RA2	set	98
   547  0063                     _RA3	set	99
   548  0081                     _RE1	set	129
   549  0084                     _RE4	set	132
   550  0085                     _RE5	set	133
   551  0083                     _RE3	set	131
   552  00A5                     _RC2IF	set	165
   553  008D                     _RC1IF	set	141
   554  0094                     _PIE4bits	set	148
   555  0091                     _PIE1bits	set	145
   556  008E                     _TRISCbits	set	142
   557  0090                     _TRISEbits	set	144
   558  008C                     _TRISAbits	set	140
   559  018C                     _ANSELA	set	396
   560  018D                     _ANSELB	set	397
   561  018F                     _ANSELD	set	399
   562  0190                     _ANSELE	set	400
   563  019C                     _SP1BRGH	set	412
   564  019B                     _SP1BRGL	set	411
   565  019E                     _TX1STA	set	414
   566  019D                     _RC1STA	set	413
   567  019F                     _BAUD1CON	set	415
   568  019E                     _TX1STAbits	set	414
   569  019A                     _TX1REG	set	410
   570  0199                     _RC1REG	set	409
   571  019D                     _RC1STAbits	set	413
   572  020D                     _WPUB	set	525
   573  020F                     _WPUD	set	527
   574  0210                     _WPUE	set	528
   575  028C                     _PORTFbits	set	652
   576  1460                     _RF0	set	5216
   577  1461                     _RF1	set	5217
   578  030D                     _TRISGbits	set	781
   579  030C                     _TRISFbits	set	780
   580  040C                     _ANSELF	set	1036
   581  040D                     _ANSELG	set	1037
   582  048D                     _WPUG	set	1165
   583  0496                     _TX2STAbits	set	1174
   584  0494                     _SP2BRGH	set	1172
   585  0493                     _SP2BRGL	set	1171
   586  0496                     _TX2STA	set	1174
   587  0495                     _RC2STA	set	1173
   588  0497                     _BAUD2CON	set	1175
   589  0492                     _TX2REG	set	1170
   590  0491                     _RC2REG	set	1169
   591  0495                     _RC2STAbits	set	1173
   592                           
   593                           	psect	stringtext1
   594  1000                     __pstringtext1:	
   595  1000                     STR_1:	
   596  1000  3423               	retlw	35	;'#'
   597  1001  3400               	retlw	0
   598                           
   599                           	psect	stringtext2
   600  0000                     __pstringtext2:	
   601                           
   602                           ; #config settings
   603  0000                     
   604                           	psect	cinit
   605  00FC                     start_initialization:	
   606  00FC                     __initialization:	
   607                           
   608                           ; Initialize objects allocated to COMMON
   609  00FC  30F6               	movlw	low __pidataCOMMON
   610  00FD  0084               	movwf	4
   611  00FE  3087               	movlw	(high __pidataCOMMON)| (0+128)
   612  00FF  0085               	movwf	5
   613  0100  3070               	movlw	low __pdataCOMMON
   614  0101  0086               	movwf	6
   615  0102  3000               	movlw	high __pdataCOMMON
   616  0103  0087               	movwf	7
   617  0104  3006               	movlw	6
   618  0105  318A  220A  3180   	fcall	init_ram
   619                           
   620                           ; Initialize objects allocated to BANK0
   621  0108  30F9               	movlw	low __pidataBANK0
   622  0109  0084               	movwf	4
   623  010A  3089               	movlw	(high __pidataBANK0)| (0+128)
   624  010B  0085               	movwf	5
   625  010C  305F               	movlw	low __pdataBANK0
   626  010D  0086               	movwf	6
   627  010E  3000               	movlw	high __pdataBANK0
   628  010F  0087               	movwf	7
   629  0110  3005               	movlw	5
   630  0111  318A  220A  3180   	fcall	init_ram
   631                           
   632                           ; Initialize objects allocated to BANK1
   633  0114  3051               	movlw	low __pidataBANK1
   634  0115  0084               	movwf	4
   635  0116  3087               	movlw	(high __pidataBANK1)| (0+128)
   636  0117  0085               	movwf	5
   637  0118  30A0               	movlw	low __pdataBANK1
   638  0119  0086               	movwf	6
   639  011A  3000               	movlw	high __pdataBANK1
   640  011B  0087               	movwf	7
   641  011C  3038               	movlw	56
   642  011D  318A  220A  3180   	fcall	init_ram
   643                           
   644                           ; Initialize objects allocated to BANK2
   645  0120  3089               	movlw	low __pidataBANK2
   646  0121  0084               	movwf	4
   647  0122  3087               	movlw	(high __pidataBANK2)| (0+128)
   648  0123  0085               	movwf	5
   649  0124  3020               	movlw	low __pdataBANK2
   650  0125  0086               	movwf	6
   651  0126  3001               	movlw	high __pdataBANK2
   652  0127  0087               	movwf	7
   653  0128  3038               	movlw	56
   654  0129  318A  220A  3180   	fcall	init_ram
   655                           
   656                           ; Initialize objects allocated to BANK3
   657  012C  300F               	movlw	low __pidataBANK3
   658  012D  0084               	movwf	4
   659  012E  3087               	movlw	(high __pidataBANK3)| (0+128)
   660  012F  0085               	movwf	5
   661  0130  30A0               	movlw	low __pdataBANK3
   662  0131  0086               	movwf	6
   663  0132  3001               	movlw	high __pdataBANK3
   664  0133  0087               	movwf	7
   665  0134  3042               	movlw	66
   666  0135  318A  220A  3180   	fcall	init_ram
   667                           
   668                           ; Clear objects allocated to BANK0
   669  0138  3049               	movlw	low __pbssBANK0
   670  0139  0084               	movwf	4
   671  013A  3000               	movlw	high __pbssBANK0
   672  013B  0085               	movwf	5
   673  013C  3016               	movlw	22
   674  013D  318A  2204  3180   	fcall	clear_ram0
   675                           
   676                           ; Clear objects allocated to BANK1
   677  0140  30D8               	movlw	low __pbssBANK1
   678  0141  0084               	movwf	4
   679  0142  3000               	movlw	high __pbssBANK1
   680  0143  0085               	movwf	5
   681  0144  300C               	movlw	12
   682  0145  318A  2204         	fcall	clear_ram0
   683  0147                     end_of_initialization:	
   684                           ;End of C runtime variable initialization code
   685                           
   686  0147                     __end_of__initialization:	
   687  0147  107E               	bcf	int$flags,0	;clear compiler interrupt flag (level 1)
   688  0148  0020               	movlb	0
   689  0149  3181  294B         	ljmp	_main	;jump to C main() function
   690                           
   691                           	psect	dataCOMMON
   692  0070                     __pdataCOMMON:	
   693  0070                     _levelofDimmer_MSB:	
   694  0070                     	ds	1
   695  0071                     _ErrorNames:	
   696  0071                     	ds	5
   697                           
   698                           	psect	bssBANK0
   699  0049                     __pbssBANK0:	
   700  0049                     _checkFlag:	
   701  0049                     	ds	2
   702  004B                     _touchPanelDataReceived:	
   703  004B                     	ds	2
   704  004D                     _touchpanelReceivedataPosition:	
   705  004D                     	ds	2
   706  004F                     _mainDataReceived:	
   707  004F                     	ds	2
   708  0051                     _mainReceivedDataPosition:	
   709  0051                     	ds	2
   710  0053                     _M6:	
   711  0053                     	ds	2
   712  0055                     _M5:	
   713  0055                     	ds	2
   714  0057                     _M4:	
   715  0057                     	ds	2
   716  0059                     _M3:	
   717  0059                     	ds	2
   718  005B                     _M2:	
   719  005B                     	ds	2
   720  005D                     _M1:	
   721  005D                     	ds	2
   722                           
   723                           	psect	dataBANK0
   724  005F                     __pdataBANK0:	
   725  005F                     applianceControl@F3791:	
   726  005F                     	ds	2
   727  0061                     applianceControl@F3789:	
   728  0061                     	ds	2
   729  0063                     _levelofDimmer_LSB:	
   730  0063                     	ds	1
   731                           
   732                           	psect	bssBANK1
   733  00D8                     __pbssBANK1:	
   734  00D8                     _start_PWM_Generation_in_ISR_FLAG:	
   735  00D8                     	ds	2
   736  00DA                     _R8:	
   737  00DA                     	ds	2
   738  00DC                     _R7:	
   739  00DC                     	ds	2
   740  00DE                     _R6:	
   741  00DE                     	ds	2
   742  00E0                     _M8:	
   743  00E0                     	ds	2
   744  00E2                     _M7:	
   745  00E2                     	ds	2
   746                           
   747                           	psect	dataBANK1
   748  00A0                     __pdataBANK1:	
   749  00A0                     _touchpanleReceivedDatabuffer:	
   750  00A0                     	ds	16
   751  00B0                     _copy_parentalLockBuffer:	
   752  00B0                     	ds	16
   753  00C0                     _parentalLockBuffer:	
   754  00C0                     	ds	16
   755  00D0                     _tempReceiveTouchpanelDataBuffer:	
   756  00D0                     	ds	8
   757                           
   758                           	psect	dataBANK2
   759  0120                     __pdataBANK2:	
   760  0120                     _mainReceivedDataBuffer:	
   761  0120                     	ds	32
   762  0140                     _tempReceivedDataBuffer:	
   763  0140                     	ds	24
   764                           
   765                           	psect	dataBANK3
   766  01A0                     __pdataBANK3:	
   767  01A0                     _currentStateBuffer:	
   768  01A0                     	ds	66
   769                           
   770                           	psect	inittext
   771  0A0A                     init_ram:	
   772  0A0A  00FE               	movwf	126
   773  0A0B                     initloop:	
   774  0A0B  0012               	moviw fsr0++
   775  0A0C  001E               	movwi fsr1++
   776  0A0D  0BFE               	decfsz	126,f
   777  0A0E  2A0B               	goto	initloop
   778  0A0F  3400               	retlw	0
   779                           
   780                           	psect	clrtext
   781  0A04                     clear_ram0:	
   782                           ;	Called with FSR0 containing the base address, and
   783                           ;	WREG with the size to clear
   784                           
   785  0A04  0064               	clrwdt	;clear the watchdog before getting into this loop
   786  0A05                     clrloop0:	
   787  0A05  0180               	clrf	0	;clear RAM location pointed to by FSR
   788  0A06  3101               	addfsr 0,1
   789  0A07  0B89               	decfsz	9,f	;Have we reached the end of clearing yet?
   790  0A08  2A05               	goto	clrloop0	;have we reached the end yet?
   791  0A09  3400               	retlw	0	;all done for this memory range, return
   792                           
   793                           	psect	cstackBANK2
   794  0158                     __pcstackBANK2:	
   795  0158                     main@start_flag:	
   796                           
   797                           ; 2 bytes @ 0x0
   798  0158                     	ds	2
   799  015A                     main@start_flag_484:	
   800                           
   801                           ; 2 bytes @ 0x2
   802  015A                     	ds	2
   803  015C                     main@end_flag:	
   804                           
   805                           ; 2 bytes @ 0x4
   806  015C                     	ds	2
   807  015E                     main@end_flag_485:	
   808                           
   809                           ; 2 bytes @ 0x6
   810  015E                     	ds	2
   811  0160                     main@dataBufferCounter:	
   812                           
   813                           ; 2 bytes @ 0x8
   814  0160                     	ds	2
   815  0162                     main@dataBufferCounter_486:	
   816                           
   817                           ; 2 bytes @ 0xA
   818  0162                     	ds	2
   819  0164                     main@man:	
   820                           
   821                           ; 2 bytes @ 0xC
   822  0164                     	ds	2
   823                           
   824                           	psect	cstackCOMMON
   825  0076                     __pcstackCOMMON:	
   826  0076                     ?_isdigit:	
   827  0076                     ?_errorsISR:	
   828                           ; 1 bit 
   829                           
   830  0076                     ??_errorsISR:	
   831                           ; 1 bytes @ 0x0
   832                           
   833  0076                     ?_GPIO_pin_Initialize:	
   834                           ; 1 bytes @ 0x0
   835                           
   836  0076                     ?_allPeripheralInit:	
   837                           ; 1 bytes @ 0x0
   838                           
   839  0076                     ?_copyReceivedDataBuffer:	
   840                           ; 1 bytes @ 0x0
   841                           
   842  0076                     ?_errorsMain:	
   843                           ; 1 bytes @ 0x0
   844                           
   845  0076                     ?_copyTouchpanelReceiveDataBuffer:	
   846                           ; 1 bytes @ 0x0
   847                           
   848  0076                     ?_sendAcknowledgment:	
   849                           ; 1 bytes @ 0x0
   850                           
   851  0076                     ?_EUSART_Initialize:	
   852                           ; 1 bytes @ 0x0
   853                           
   854  0076                     ?_EUSART2_Initialize:	
   855                           ; 1 bytes @ 0x0
   856                           
   857  0076                     ?_clearAllPorts:	
   858                           ; 1 bytes @ 0x0
   859                           
   860  0076                     ?_pinINIT_extra:	
   861                           ; 1 bytes @ 0x0
   862                           
   863  0076                     ?_isr:	
   864                           ; 1 bytes @ 0x0
   865                           
   866  0076                     ?_main:	
   867                           ; 1 bytes @ 0x0
   868                           
   869                           
   870                           ; 1 bytes @ 0x0
   871  0076                     	ds	1
   872  0077                     errorsISR@Tx_count:	
   873                           
   874                           ; 2 bytes @ 0x1
   875  0077                     	ds	2
   876  0079                     errorsISR@errNum:	
   877                           
   878                           ; 1 bytes @ 0x3
   879  0079                     	ds	1
   880  007A                     ??_isr:	
   881                           
   882                           ; 1 bytes @ 0x4
   883  007A                     	ds	2
   884                           
   885                           	psect	cstackBANK0
   886  0020                     __pcstackBANK0:	
   887  0020                     ??_GPIO_pin_Initialize:	
   888  0020                     ??_allPeripheralInit:	
   889                           ; 1 bytes @ 0x0
   890                           
   891  0020                     ??_copyReceivedDataBuffer:	
   892                           ; 1 bytes @ 0x0
   893                           
   894  0020                     ??_errorsMain:	
   895                           ; 1 bytes @ 0x0
   896                           
   897  0020                     ??_copyTouchpanelReceiveDataBuffer:	
   898                           ; 1 bytes @ 0x0
   899                           
   900  0020                     ?_send_Response_To_Touch:	
   901                           ; 1 bytes @ 0x0
   902                           
   903  0020                     ??_sendAcknowledgment:	
   904                           ; 1 bytes @ 0x0
   905                           
   906  0020                     ?_sendFeedback_TO_Gateway:	
   907                           ; 1 bytes @ 0x0
   908                           
   909  0020                     ??_EUSART_Initialize:	
   910                           ; 1 bytes @ 0x0
   911                           
   912  0020                     ??_EUSART2_Initialize:	
   913                           ; 1 bytes @ 0x0
   914                           
   915  0020                     ??_clearAllPorts:	
   916                           ; 1 bytes @ 0x0
   917                           
   918  0020                     ??_pinINIT_extra:	
   919                           ; 1 bytes @ 0x0
   920                           
   921  0020                     ??_isdigit:	
   922                           ; 1 bytes @ 0x0
   923                           
   924  0020                     ?___wmul:	
   925                           ; 1 bytes @ 0x0
   926                           
   927  0020                     sendFeedback_TO_Gateway@sw_status:	
   928                           ; 2 bytes @ 0x0
   929                           
   930  0020                     send_Response_To_Touch@switch_status:	
   931                           ; 1 bytes @ 0x0
   932                           
   933  0020                     _isdigit$761:	
   934                           ; 1 bytes @ 0x0
   935                           
   936  0020                     ___wmul@multiplier:	
   937                           ; 1 bytes @ 0x0
   938                           
   939                           
   940                           ; 2 bytes @ 0x0
   941  0020                     	ds	1
   942  0021                     ??_sendFeedback_TO_Gateway:	
   943  0021                     send_Response_To_Touch@fan_speed:	
   944                           ; 1 bytes @ 0x1
   945                           
   946  0021                     isdigit@c:	
   947                           ; 1 bytes @ 0x1
   948                           
   949  0021                     copyReceivedDataBuffer@dataBufferCounter:	
   950                           ; 1 bytes @ 0x1
   951                           
   952  0021                     sendAcknowledgment@Tx_count:	
   953                           ; 2 bytes @ 0x1
   954                           
   955  0021                     errorsMain@Tx_count:	
   956                           ; 2 bytes @ 0x1
   957                           
   958  0021                     copyTouchpanelReceiveDataBuffer@dataBufferCounter:	
   959                           ; 2 bytes @ 0x1
   960                           
   961                           
   962                           ; 2 bytes @ 0x1
   963  0021                     	ds	1
   964  0022                     ??_send_Response_To_Touch:	
   965  0022                     sendFeedback_TO_Gateway@Switch_Num:	
   966                           ; 1 bytes @ 0x2
   967                           
   968  0022                     ___wmul@multiplicand:	
   969                           ; 1 bytes @ 0x2
   970                           
   971                           
   972                           ; 2 bytes @ 0x2
   973  0022                     	ds	1
   974  0023                     ?_actiontouchPanel:	
   975  0023                     actiontouchPanel@sw_status:	
   976                           ; 1 bytes @ 0x3
   977                           
   978  0023                     sendAcknowledgment@currentStateBuffer:	
   979                           ; 1 bytes @ 0x3
   980                           
   981  0023                     errorsMain@errNum:	
   982                           ; 1 bytes @ 0x3
   983                           
   984  0023                     send_Response_To_Touch@switch_no:	
   985                           ; 1 bytes @ 0x3
   986                           
   987                           
   988                           ; 1 bytes @ 0x3
   989  0023                     	ds	1
   990  0024                     ??___wmul:	
   991  0024                     actiontouchPanel@Sw_speed:	
   992                           ; 1 bytes @ 0x4
   993                           
   994  0024                     ___wmul@product:	
   995                           ; 1 bytes @ 0x4
   996                           
   997                           
   998                           ; 2 bytes @ 0x4
   999  0024                     	ds	1
  1000  0025                     ??_actiontouchPanel:	
  1001                           
  1002                           ; 1 bytes @ 0x5
  1003  0025                     	ds	1
  1004  0026                     ?_atoi:	
  1005                           
  1006                           ; 2 bytes @ 0x6
  1007  0026                     	ds	1
  1008  0027                     actiontouchPanel@int_swSpeed:	
  1009                           
  1010                           ; 2 bytes @ 0x7
  1011  0027                     	ds	1
  1012  0028                     ??_atoi:	
  1013                           
  1014                           ; 1 bytes @ 0x8
  1015  0028                     	ds	1
  1016  0029                     actiontouchPanel@ch_sw_num:	
  1017                           
  1018                           ; 1 bytes @ 0x9
  1019  0029                     	ds	1
  1020  002A                     atoi@sign:	
  1021  002A                     actiontouchPanel@SwNum:	
  1022                           ; 1 bytes @ 0xA
  1023                           
  1024                           
  1025                           ; 2 bytes @ 0xA
  1026  002A                     	ds	1
  1027  002B                     atoi@a:	
  1028                           
  1029                           ; 2 bytes @ 0xB
  1030  002B                     	ds	1
  1031  002C                     actiontouchPanel@Switch_Num:	
  1032                           
  1033                           ; 1 bytes @ 0xC
  1034  002C                     	ds	1
  1035  002D                     atoi@s:	
  1036  002D                     actiontouchPanel@switch_status:	
  1037                           ; 1 bytes @ 0xD
  1038                           
  1039                           
  1040                           ; 2 bytes @ 0xD
  1041  002D                     	ds	1
  1042  002E                     ?_applianceControl:	
  1043  002E                     applianceControl@charSwitchLSB:	
  1044                           ; 1 bytes @ 0xE
  1045                           
  1046                           
  1047                           ; 1 bytes @ 0xE
  1048  002E                     	ds	1
  1049  002F                     applianceControl@charSwitchSTATE:	
  1050                           
  1051                           ; 1 bytes @ 0xF
  1052  002F                     	ds	1
  1053  0030                     applianceControl@chDimmerSpeedMSB:	
  1054                           
  1055                           ; 1 bytes @ 0x10
  1056  0030                     	ds	1
  1057  0031                     applianceControl@chDimmerSpeedLSB:	
  1058                           
  1059                           ; 1 bytes @ 0x11
  1060  0031                     	ds	1
  1061  0032                     applianceControl@charParentalControl:	
  1062                           
  1063                           ; 1 bytes @ 0x12
  1064  0032                     	ds	1
  1065  0033                     applianceControl@charFinalFrameState:	
  1066                           
  1067                           ; 1 bytes @ 0x13
  1068  0033                     	ds	1
  1069  0034                     ??_applianceControl:	
  1070                           
  1071                           ; 1 bytes @ 0x14
  1072  0034                     	ds	2
  1073  0036                     applianceControl@integerSpeed:	
  1074                           
  1075                           ; 2 bytes @ 0x16
  1076  0036                     	ds	2
  1077  0038                     applianceControl@charSwitchMSB:	
  1078                           
  1079                           ; 1 bytes @ 0x18
  1080  0038                     	ds	1
  1081  0039                     applianceControl@switchNumberStringBuffer:	
  1082                           
  1083                           ; 2 bytes @ 0x19
  1084  0039                     	ds	2
  1085  003B                     applianceControl@dimmerSpeedStringBuffer:	
  1086                           
  1087                           ; 2 bytes @ 0x1B
  1088  003B                     	ds	2
  1089  003D                     applianceControl@currentStateBufferPositions:	
  1090                           
  1091                           ; 2 bytes @ 0x1D
  1092  003D                     	ds	2
  1093  003F                     applianceControl@integerSwitchNumber:	
  1094                           
  1095                           ; 2 bytes @ 0x1F
  1096  003F                     	ds	2
  1097  0041                     applianceControl@integerSwitchState:	
  1098                           
  1099                           ; 2 bytes @ 0x21
  1100  0041                     	ds	2
  1101  0043                     ??_main:	
  1102                           
  1103                           ; 1 bytes @ 0x23
  1104  0043                     	ds	6
  1105                           
  1106                           	psect	maintext
  1107  014B                     __pmaintext:	
  1108 ;;
  1109 ;;Main: autosize = 0, tempsize = 6, incstack = 0, save=0
  1110 ;;
  1111 ;; *************** function _main *****************
  1112 ;; Defined at:
  1113 ;;		line 242 in file "4sw1fan.c"
  1114 ;; Parameters:    Size  Location     Type
  1115 ;;		None
  1116 ;; Auto vars:     Size  Location     Type
  1117 ;;  dataBufferCo    2   10[BANK2 ] int 
  1118 ;;  dataBufferCo    2    8[BANK2 ] int 
  1119 ;;  end_flag        2    6[BANK2 ] int 
  1120 ;;  start_flag      2    2[BANK2 ] int 
  1121 ;;  end_flag        2    4[BANK2 ] int 
  1122 ;;  start_flag      2    0[BANK2 ] int 
  1123 ;;  man             2   12[BANK2 ] int 
  1124 ;; Return value:  Size  Location     Type
  1125 ;;                  1    wreg      void 
  1126 ;; Registers used:
  1127 ;;		wreg, fsr0l, fsr0h, fsr1l, fsr1h, status,2, status,0, pclath, cstack
  1128 ;; Tracked objects:
  1129 ;;		On entry : B1F/0
  1130 ;;		On exit  : 0/0
  1131 ;;		Unchanged: 0/0
  1132 ;; Data sizes:     COMMON   BANK0   BANK1   BANK2   BANK3   BANK4   BANK5   BANK6   BANK7   BANK8   BANK9
  1133 ;;      Params:         0       0       0       0       0       0       0       0       0       0       0
  1134 ;;      Locals:         0       0       0      14       0       0       0       0       0       0       0
  1135 ;;      Temps:          0       6       0       0       0       0       0       0       0       0       0
  1136 ;;      Totals:         0       6       0      14       0       0       0       0       0       0       0
  1137 ;;Total ram usage:       20 bytes
  1138 ;; Hardware stack levels required when called:    5
  1139 ;; This function calls:
  1140 ;;		_GPIO_pin_Initialize
  1141 ;;		_actiontouchPanel
  1142 ;;		_allPeripheralInit
  1143 ;;		_applianceControl
  1144 ;;		_copyReceivedDataBuffer
  1145 ;;		_copyTouchpanelReceiveDataBuffer
  1146 ;;		_errorsMain
  1147 ;;		_send_Response_To_Touch
  1148 ;; This function is called by:
  1149 ;;		Startup code after reset
  1150 ;; This function uses a non-reentrant model
  1151 ;;
  1152                           
  1153                           
  1154                           ;psect for function _main
  1155  014B                     _main:	
  1156                           
  1157                           ;4sw1fan.c: 245: GPIO_pin_Initialize();
  1158                           
  1159                           ;incstack = 0
  1160                           ; Regs used in _main: [wreg-fsr1h+status,2+status,0+pclath+cstack]
  1161  014B  318A  22DC  3181   	fcall	_GPIO_pin_Initialize
  1162                           
  1163                           ;4sw1fan.c: 246: allPeripheralInit();
  1164  014E  3189  21FE  3181   	fcall	_allPeripheralInit
  1165                           
  1166                           ;4sw1fan.c: 247: R1=1;R2=1;R3=1;R4=1;R5=1;
  1167  0151  3001               	movlw	1
  1168  0152  0021               	movlb	1	; select bank1
  1169  0153  00EC               	movwf	_R1^(0+128)
  1170  0154  3000               	movlw	0
  1171  0155  00ED               	movwf	(_R1^(0+128)+1)
  1172  0156  3001               	movlw	1
  1173  0157  00EA               	movwf	_R2^(0+128)
  1174  0158  3000               	movlw	0
  1175  0159  00EB               	movwf	(_R2^(0+128)+1)
  1176  015A  3001               	movlw	1
  1177  015B  00E8               	movwf	_R3^(0+128)
  1178  015C  3000               	movlw	0
  1179  015D  00E9               	movwf	(_R3^(0+128)+1)
  1180  015E  3001               	movlw	1
  1181  015F  00E6               	movwf	_R4^(0+128)
  1182  0160  3000               	movlw	0
  1183  0161  00E7               	movwf	(_R4^(0+128)+1)
  1184  0162  3001               	movlw	1
  1185  0163  00E4               	movwf	_R5^(0+128)
  1186  0164  3000               	movlw	0
  1187  0165  00E5               	movwf	(_R5^(0+128)+1)
  1188                           
  1189                           ;4sw1fan.c: 248: RE3 = 1;
  1190  0166  0020               	movlb	0	; select bank0
  1191  0167  1590               	bsf	16,3	;volatile
  1192                           
  1193                           ;4sw1fan.c: 249: RE5 = 0;
  1194  0168  1290               	bcf	16,5	;volatile
  1195                           
  1196                           ;4sw1fan.c: 250: RE4 = 0;
  1197  0169  1210               	bcf	16,4	;volatile
  1198                           
  1199                           ;4sw1fan.c: 251: RE1 = 0;
  1200  016A  1090               	bcf	16,1	;volatile
  1201                           
  1202                           ;4sw1fan.c: 253: RF1 = 0;
  1203  016B  0025               	movlb	5	; select bank5
  1204  016C  108C               	bcf	12,1	;volatile
  1205                           
  1206                           ;4sw1fan.c: 254: RF0 = 0;
  1207  016D  100C               	bcf	12,0	;volatile
  1208                           
  1209                           ;4sw1fan.c: 255: RA3 = 0;
  1210  016E  0020               	movlb	0	; select bank0
  1211  016F  118C               	bcf	12,3	;volatile
  1212                           
  1213                           ;4sw1fan.c: 256: RA2 = 0;
  1214  0170  110C               	bcf	12,2	;volatile
  1215  0171                     l3076:	
  1216                           ;4sw1fan.c: 258: while(1)
  1217                           
  1218                           
  1219                           ;4sw1fan.c: 259: {
  1220                           ;4sw1fan.c: 261: if(mainDataReceived==1){
  1221  0171  0020               	movlb	0	; select bank0
  1222  0172  034F               	decf	_mainDataReceived,w	;volatile
  1223  0173  0450               	iorwf	_mainDataReceived+1,w	;volatile
  1224  0174  1D03               	btfss	3,2
  1225  0175  2A27               	goto	l3136
  1226                           
  1227                           ;4sw1fan.c: 262: mainDataReceived=0;
  1228  0176  01CF               	clrf	_mainDataReceived	;volatile
  1229  0177  01D0               	clrf	_mainDataReceived+1	;volatile
  1230                           
  1231                           ;4sw1fan.c: 263: checkFlag=1;
  1232  0178  3001               	movlw	1
  1233  0179  00C9               	movwf	_checkFlag
  1234  017A  3000               	movlw	0
  1235  017B  00CA               	movwf	_checkFlag+1
  1236                           
  1237                           ;4sw1fan.c: 264: int start_flag = 0;
  1238  017C  0022               	movlb	2	; select bank2
  1239  017D  01D8               	clrf	main@start_flag^(0+256)
  1240  017E  01D9               	clrf	(main@start_flag+1)^(0+256)
  1241                           
  1242                           ;4sw1fan.c: 265: int end_flag = 0;
  1243  017F  01DC               	clrf	main@end_flag^(0+256)
  1244  0180  01DD               	clrf	(main@end_flag+1)^(0+256)
  1245                           
  1246                           ;4sw1fan.c: 266: if(mainReceivedDataBuffer[0]=='%' && mainReceivedDataBuffer[1]=='%' && 
      +                          mainReceivedDataBuffer[14]=='@' && mainReceivedDataBuffer[15]=='@'){
  1247  0181  3025               	movlw	37
  1248  0182  0620               	xorwf	_mainReceivedDataBuffer^(0+256),w
  1249  0183  1D03               	btfss	3,2
  1250  0184  29DE               	goto	l3116
  1251  0185  3025               	movlw	37
  1252  0186  0621               	xorwf	(_mainReceivedDataBuffer^(0+256)+1),w
  1253  0187  1D03               	btfss	3,2
  1254  0188  29DE               	goto	l3116
  1255  0189  3040               	movlw	64
  1256  018A  062E               	xorwf	(_mainReceivedDataBuffer^(0+256)+14),w
  1257  018B  1D03               	btfss	3,2
  1258  018C  29DE               	goto	l3116
  1259  018D  3040               	movlw	64
  1260  018E  062F               	xorwf	(_mainReceivedDataBuffer^(0+256)+15),w
  1261  018F  1D03               	btfss	3,2
  1262  0190  29DE               	goto	l3116
  1263                           
  1264                           ;4sw1fan.c: 267: if(mainReceivedDataBuffer[0] == '%' && mainReceivedDataBuffer[1]=='%' &
      +                          & start_flag == 0)
  1265  0191  3025               	movlw	37
  1266  0192  0620               	xorwf	_mainReceivedDataBuffer^(0+256),w
  1267  0193  1D03               	btfss	3,2
  1268  0194  29A1               	goto	l3102
  1269  0195  3025               	movlw	37
  1270  0196  0621               	xorwf	(_mainReceivedDataBuffer^(0+256)+1),w
  1271  0197  1D03               	btfss	3,2
  1272  0198  29A1               	goto	l3102
  1273  0199  0858               	movf	main@start_flag^(0+256),w
  1274  019A  0459               	iorwf	(main@start_flag+1)^(0+256),w
  1275  019B  1D03               	btfss	3,2
  1276  019C  29A1               	goto	l3102
  1277                           
  1278                           ;4sw1fan.c: 268: {
  1279                           ;4sw1fan.c: 269: end_flag = 1;
  1280  019D  3001               	movlw	1
  1281  019E  00DC               	movwf	main@end_flag^(0+256)
  1282  019F  3000               	movlw	0
  1283  01A0  00DD               	movwf	(main@end_flag^(0+256)+1)
  1284  01A1                     l3102:	
  1285                           
  1286                           ;4sw1fan.c: 270: }
  1287                           ;4sw1fan.c: 271: if(mainReceivedDataBuffer[14]=='@' && mainReceivedDataBuffer[15]=='@' &
      +                          & end_flag ==1)
  1288  01A1  3040               	movlw	64
  1289  01A2  062E               	xorwf	(_mainReceivedDataBuffer^(0+256)+14),w
  1290  01A3  1D03               	btfss	3,2
  1291  01A4  29B5               	goto	l3114
  1292  01A5  3040               	movlw	64
  1293  01A6  062F               	xorwf	(_mainReceivedDataBuffer^(0+256)+15),w
  1294  01A7  1D03               	btfss	3,2
  1295  01A8  29B5               	goto	l3114
  1296  01A9  035C               	decf	main@end_flag^(0+256),w
  1297  01AA  045D               	iorwf	(main@end_flag+1)^(0+256),w
  1298  01AB  1D03               	btfss	3,2
  1299  01AC  29B5               	goto	l3114
  1300                           
  1301                           ;4sw1fan.c: 272: {
  1302                           ;4sw1fan.c: 273: copyReceivedDataBuffer();
  1303  01AD  318B  232A  3181   	fcall	_copyReceivedDataBuffer
  1304                           
  1305                           ;4sw1fan.c: 274: start_flag = 0;
  1306  01B0  0022               	movlb	2	; select bank2
  1307  01B1  01D8               	clrf	main@start_flag^(0+256)
  1308  01B2  01D9               	clrf	(main@start_flag+1)^(0+256)
  1309                           
  1310                           ;4sw1fan.c: 275: end_flag = 0;
  1311  01B3  01DC               	clrf	main@end_flag^(0+256)
  1312  01B4  01DD               	clrf	(main@end_flag+1)^(0+256)
  1313  01B5                     l3114:	
  1314                           
  1315                           ;4sw1fan.c: 276: }
  1316                           ;4sw1fan.c: 282: applianceControl(tempReceivedDataBuffer[0],
  1317                           ;4sw1fan.c: 283: tempReceivedDataBuffer[1],
  1318                           ;4sw1fan.c: 284: tempReceivedDataBuffer[2],
  1319                           ;4sw1fan.c: 285: tempReceivedDataBuffer[3],
  1320                           ;4sw1fan.c: 286: tempReceivedDataBuffer[4],
  1321                           ;4sw1fan.c: 287: tempReceivedDataBuffer[5],
  1322                           ;4sw1fan.c: 288: tempReceivedDataBuffer[6]);
  1323  01B5  0841               	movf	(_tempReceivedDataBuffer^(0+256)+1),w
  1324  01B6  0020               	movlb	0	; select bank0
  1325  01B7  00C3               	movwf	??_main
  1326  01B8  0843               	movf	??_main,w
  1327  01B9  00AE               	movwf	applianceControl@charSwitchLSB
  1328  01BA  0022               	movlb	2	; select bank2
  1329  01BB  0842               	movf	(_tempReceivedDataBuffer^(0+256)+2),w
  1330  01BC  0020               	movlb	0	; select bank0
  1331  01BD  00C4               	movwf	??_main+1
  1332  01BE  0844               	movf	??_main+1,w
  1333  01BF  00AF               	movwf	applianceControl@charSwitchSTATE
  1334  01C0  0022               	movlb	2	; select bank2
  1335  01C1  0843               	movf	(_tempReceivedDataBuffer^(0+256)+3),w
  1336  01C2  0020               	movlb	0	; select bank0
  1337  01C3  00C5               	movwf	??_main+2
  1338  01C4  0845               	movf	??_main+2,w
  1339  01C5  00B0               	movwf	applianceControl@chDimmerSpeedMSB
  1340  01C6  0022               	movlb	2	; select bank2
  1341  01C7  0844               	movf	(_tempReceivedDataBuffer^(0+256)+4),w
  1342  01C8  0020               	movlb	0	; select bank0
  1343  01C9  00C6               	movwf	??_main+3
  1344  01CA  0846               	movf	??_main+3,w
  1345  01CB  00B1               	movwf	applianceControl@chDimmerSpeedLSB
  1346  01CC  0022               	movlb	2	; select bank2
  1347  01CD  0845               	movf	(_tempReceivedDataBuffer^(0+256)+5),w
  1348  01CE  0020               	movlb	0	; select bank0
  1349  01CF  00C7               	movwf	??_main+4
  1350  01D0  0847               	movf	??_main+4,w
  1351  01D1  00B2               	movwf	applianceControl@charParentalControl
  1352  01D2  0022               	movlb	2	; select bank2
  1353  01D3  0846               	movf	(_tempReceivedDataBuffer^(0+256)+6),w
  1354  01D4  0020               	movlb	0	; select bank0
  1355  01D5  00C8               	movwf	??_main+5
  1356  01D6  0848               	movf	??_main+5,w
  1357  01D7  00B3               	movwf	applianceControl@charFinalFrameState
  1358  01D8  0022               	movlb	2	; select bank2
  1359  01D9  0840               	movf	_tempReceivedDataBuffer^(0+256),w
  1360  01DA  318D  255E  3181   	fcall	_applianceControl
  1361                           
  1362                           ;4sw1fan.c: 290: }
  1363  01DD  2A27               	goto	l3136
  1364  01DE                     l3116:	
  1365                           
  1366                           ;4sw1fan.c: 291: else{
  1367                           ;4sw1fan.c: 292: ErrorNames[0]='E'; ErrorNames[1]='R'; ErrorNames[2]='L'; ErrorNames[3]=
      +                          'S';
  1368  01DE  3045               	movlw	69
  1369  01DF  0020               	movlb	0	; select bank0
  1370  01E0  00C3               	movwf	??_main
  1371  01E1  0843               	movf	??_main,w
  1372  01E2  00F1               	movwf	_ErrorNames
  1373  01E3  3052               	movlw	82
  1374  01E4  00C3               	movwf	??_main
  1375  01E5  0843               	movf	??_main,w
  1376  01E6  00F2               	movwf	_ErrorNames+1
  1377  01E7  304C               	movlw	76
  1378  01E8  00C3               	movwf	??_main
  1379  01E9  0843               	movf	??_main,w
  1380  01EA  00F3               	movwf	_ErrorNames+2
  1381  01EB  3053               	movlw	83
  1382  01EC  00C3               	movwf	??_main
  1383  01ED  0843               	movf	??_main,w
  1384  01EE  00F4               	movwf	_ErrorNames+3
  1385                           
  1386                           ;4sw1fan.c: 293: errorsMain(ErrorNames);
  1387  01EF  3071               	movlw	(low (_ErrorNames| 0))& (0+255)
  1388  01F0  318A  22A1  3181   	fcall	_errorsMain
  1389                           
  1390                           ;4sw1fan.c: 294: RC1STAbits.SPEN=0;
  1391  01F3  0023               	movlb	3	; select bank3
  1392  01F4  139D               	bcf	29,7	;volatile
  1393                           
  1394                           ;4sw1fan.c: 295: RC1STAbits.CREN = 0;
  1395  01F5  121D               	bcf	29,4	;volatile
  1396                           
  1397                           ;4sw1fan.c: 296: for(int dataBufferCounter = 0; dataBufferCounter< 15; dataBufferCounter
      +                          ++)
  1398  01F6  0022               	movlb	2	; select bank2
  1399  01F7  01E0               	clrf	main@dataBufferCounter^(0+256)
  1400  01F8  01E1               	clrf	(main@dataBufferCounter+1)^(0+256)
  1401  01F9  0861               	movf	(main@dataBufferCounter+1)^(0+256),w
  1402  01FA  3A80               	xorlw	128
  1403  01FB  0020               	movlb	0	; select bank0
  1404  01FC  00C3               	movwf	??_main
  1405  01FD  3080               	movlw	128
  1406  01FE  0243               	subwf	??_main,w
  1407  01FF  1D03               	skipz
  1408  0200  2A04               	goto	u3435
  1409  0201  300F               	movlw	15
  1410  0202  0022               	movlb	2	; select bank2
  1411  0203  0260               	subwf	main@dataBufferCounter^(0+256),w
  1412  0204                     u3435:	
  1413  0204  1803               	btfsc	3,0
  1414  0205  2A24               	goto	l225
  1415  0206                     l3130:	
  1416                           
  1417                           ;4sw1fan.c: 297: {
  1418                           ;4sw1fan.c: 298: mainReceivedDataBuffer[dataBufferCounter] = '#';
  1419  0206  3023               	movlw	35
  1420  0207  0020               	movlb	0	; select bank0
  1421  0208  00C3               	movwf	??_main
  1422  0209  0022               	movlb	2	; select bank2
  1423  020A  0860               	movf	main@dataBufferCounter^(0+256),w
  1424  020B  3E20               	addlw	(low (_mainReceivedDataBuffer| (0+256)))& (0+255)
  1425  020C  0086               	movwf	6
  1426  020D  3001               	movlw	1	; select bank2/3
  1427  020E  0087               	movwf	7
  1428  020F  0020               	movlb	0	; select bank0
  1429  0210  0843               	movf	??_main,w
  1430  0211  0081               	movwf	1
  1431  0212  3001               	movlw	1
  1432  0213  0022               	movlb	2	; select bank2
  1433  0214  07E0               	addwf	main@dataBufferCounter^(0+256),f
  1434  0215  3000               	movlw	0
  1435  0216  3DE1               	addwfc	(main@dataBufferCounter+1)^(0+256),f
  1436  0217  0861               	movf	(main@dataBufferCounter+1)^(0+256),w
  1437  0218  3A80               	xorlw	128
  1438  0219  0020               	movlb	0	; select bank0
  1439  021A  00C3               	movwf	??_main
  1440  021B  3080               	movlw	128
  1441  021C  0243               	subwf	??_main,w
  1442  021D  1D03               	skipz
  1443  021E  2A22               	goto	u3445
  1444  021F  300F               	movlw	15
  1445  0220  0022               	movlb	2	; select bank2
  1446  0221  0260               	subwf	main@dataBufferCounter^(0+256),w
  1447  0222                     u3445:	
  1448  0222  1C03               	skipc
  1449  0223  2A06               	goto	l3130
  1450  0224                     l225:	
  1451                           
  1452                           ;4sw1fan.c: 299: }
  1453                           ;4sw1fan.c: 300: RC1STAbits.CREN = 1;
  1454  0224  0023               	movlb	3	; select bank3
  1455  0225  161D               	bsf	29,4	;volatile
  1456                           
  1457                           ;4sw1fan.c: 301: RC1STAbits.SPEN=1;
  1458  0226  179D               	bsf	29,7	;volatile
  1459  0227                     l3136:	
  1460                           
  1461                           ;4sw1fan.c: 302: }
  1462                           ;4sw1fan.c: 303: }
  1463                           ;4sw1fan.c: 306: if(touchPanelDataReceived == 1)
  1464  0227  0020               	movlb	0	; select bank0
  1465  0228  034B               	decf	_touchPanelDataReceived,w	;volatile
  1466  0229  044C               	iorwf	_touchPanelDataReceived+1,w	;volatile
  1467  022A  1D03               	btfss	3,2
  1468  022B  2AB9               	goto	l3184
  1469                           
  1470                           ;4sw1fan.c: 307: {
  1471                           ;4sw1fan.c: 309: touchPanelDataReceived = 0;
  1472  022C  01CB               	clrf	_touchPanelDataReceived	;volatile
  1473  022D  01CC               	clrf	_touchPanelDataReceived+1	;volatile
  1474                           
  1475                           ;4sw1fan.c: 310: int start_flag = 0;
  1476  022E  0022               	movlb	2	; select bank2
  1477  022F  01DA               	clrf	main@start_flag_484^(0+256)
  1478  0230  01DB               	clrf	(main@start_flag_484+1)^(0+256)
  1479                           
  1480                           ;4sw1fan.c: 311: int end_flag = 0;
  1481  0231  01DE               	clrf	main@end_flag_485^(0+256)
  1482  0232  01DF               	clrf	(main@end_flag_485+1)^(0+256)
  1483                           
  1484                           ;4sw1fan.c: 312: if(touchpanleReceivedDatabuffer[0] == '(' && touchpanleReceivedDatabuff
      +                          er[7] == ')')
  1485  0233  3028               	movlw	40
  1486  0234  0021               	movlb	1	; select bank1
  1487  0235  0620               	xorwf	_touchpanleReceivedDatabuffer^(0+128),w
  1488  0236  1D03               	btfss	3,2
  1489  0237  2A71               	goto	l3164
  1490  0238  3029               	movlw	41
  1491  0239  0627               	xorwf	(_touchpanleReceivedDatabuffer^(0+128)+7),w
  1492  023A  1D03               	btfss	3,2
  1493  023B  2A71               	goto	l3164
  1494                           
  1495                           ;4sw1fan.c: 313: {
  1496                           ;4sw1fan.c: 315: if(touchpanleReceivedDatabuffer[0] == '(' && start_flag == 0)
  1497  023C  3028               	movlw	40
  1498  023D  0620               	xorwf	_touchpanleReceivedDatabuffer^(0+128),w
  1499  023E  1D03               	btfss	3,2
  1500  023F  2A49               	goto	l3150
  1501  0240  0022               	movlb	2	; select bank2
  1502  0241  085A               	movf	main@start_flag_484^(0+256),w
  1503  0242  045B               	iorwf	(main@start_flag_484+1)^(0+256),w
  1504  0243  1D03               	btfss	3,2
  1505  0244  2A49               	goto	l3150
  1506                           
  1507                           ;4sw1fan.c: 316: {
  1508                           ;4sw1fan.c: 317: end_flag =1;
  1509  0245  3001               	movlw	1
  1510  0246  00DE               	movwf	main@end_flag_485^(0+256)
  1511  0247  3000               	movlw	0
  1512  0248  00DF               	movwf	(main@end_flag_485^(0+256)+1)
  1513  0249                     l3150:	
  1514                           
  1515                           ;4sw1fan.c: 319: }
  1516                           ;4sw1fan.c: 320: if(touchpanleReceivedDatabuffer[7] == ')' && end_flag ==1)
  1517  0249  3029               	movlw	41
  1518  024A  0021               	movlb	1	; select bank1
  1519  024B  0627               	xorwf	(_touchpanleReceivedDatabuffer^(0+128)+7),w
  1520  024C  1D03               	btfss	3,2
  1521  024D  2AB9               	goto	l3184
  1522  024E  0022               	movlb	2	; select bank2
  1523  024F  035E               	decf	main@end_flag_485^(0+256),w
  1524  0250  045F               	iorwf	(main@end_flag_485+1)^(0+256),w
  1525  0251  1D03               	btfss	3,2
  1526  0252  2AB9               	goto	l3184
  1527                           
  1528                           ;4sw1fan.c: 321: {
  1529                           ;4sw1fan.c: 322: copyTouchpanelReceiveDataBuffer();
  1530  0253  318A  22FB  3181   	fcall	_copyTouchpanelReceiveDataBuffer
  1531                           
  1532                           ;4sw1fan.c: 323: if(tempReceiveTouchpanelDataBuffer[0] != '@')
  1533  0256  3040               	movlw	64
  1534  0257  0021               	movlb	1	; select bank1
  1535  0258  0650               	xorwf	_tempReceiveTouchpanelDataBuffer^(0+128),w
  1536  0259  1903               	btfsc	3,2
  1537  025A  2AB9               	goto	l3184
  1538                           
  1539                           ;4sw1fan.c: 324: {
  1540                           ;4sw1fan.c: 325: actiontouchPanel(tempReceiveTouchpanelDataBuffer[0]
  1541                           ;4sw1fan.c: 326: ,tempReceiveTouchpanelDataBuffer[1]
  1542                           ;4sw1fan.c: 327: ,tempReceiveTouchpanelDataBuffer[2]);
  1543  025B  0851               	movf	(_tempReceiveTouchpanelDataBuffer^(0+128)+1),w
  1544  025C  0020               	movlb	0	; select bank0
  1545  025D  00C3               	movwf	??_main
  1546  025E  0843               	movf	??_main,w
  1547  025F  00A3               	movwf	actiontouchPanel@sw_status
  1548  0260  0021               	movlb	1	; select bank1
  1549  0261  0852               	movf	(_tempReceiveTouchpanelDataBuffer^(0+128)+2),w
  1550  0262  0020               	movlb	0	; select bank0
  1551  0263  00C4               	movwf	??_main+1
  1552  0264  0844               	movf	??_main+1,w
  1553  0265  00A4               	movwf	actiontouchPanel@Sw_speed
  1554  0266  0021               	movlb	1	; select bank1
  1555  0267  0850               	movf	_tempReceiveTouchpanelDataBuffer^(0+128),w
  1556  0268  318B  235C  3181   	fcall	_actiontouchPanel
  1557                           
  1558                           ;4sw1fan.c: 328: start_flag = 0;
  1559  026B  0022               	movlb	2	; select bank2
  1560  026C  01DA               	clrf	main@start_flag_484^(0+256)
  1561  026D  01DB               	clrf	(main@start_flag_484+1)^(0+256)
  1562                           
  1563                           ;4sw1fan.c: 329: end_flag = 0;
  1564  026E  01DE               	clrf	main@end_flag_485^(0+256)
  1565  026F  01DF               	clrf	(main@end_flag_485+1)^(0+256)
  1566                           
  1567                           ;4sw1fan.c: 330: }
  1568                           ;4sw1fan.c: 332: }
  1569                           ;4sw1fan.c: 334: }
  1570  0270  2AB9               	goto	l3184
  1571  0271                     l3164:	
  1572                           
  1573                           ;4sw1fan.c: 335: else
  1574                           ;4sw1fan.c: 336: {
  1575                           ;4sw1fan.c: 337: ErrorNames[0]='E'; ErrorNames[1]='R'; ErrorNames[2]='L'; ErrorNames[3]=
      +                          'S';
  1576  0271  3045               	movlw	69
  1577  0272  0020               	movlb	0	; select bank0
  1578  0273  00C3               	movwf	??_main
  1579  0274  0843               	movf	??_main,w
  1580  0275  00F1               	movwf	_ErrorNames
  1581  0276  3052               	movlw	82
  1582  0277  00C3               	movwf	??_main
  1583  0278  0843               	movf	??_main,w
  1584  0279  00F2               	movwf	_ErrorNames+1
  1585  027A  304C               	movlw	76
  1586  027B  00C3               	movwf	??_main
  1587  027C  0843               	movf	??_main,w
  1588  027D  00F3               	movwf	_ErrorNames+2
  1589  027E  3053               	movlw	83
  1590  027F  00C3               	movwf	??_main
  1591  0280  0843               	movf	??_main,w
  1592  0281  00F4               	movwf	_ErrorNames+3
  1593                           
  1594                           ;4sw1fan.c: 338: errorsMain(ErrorNames);
  1595  0282  3071               	movlw	(low (_ErrorNames| 0))& (0+255)
  1596  0283  318A  22A1  3181   	fcall	_errorsMain
  1597                           
  1598                           ;4sw1fan.c: 339: RC2STAbits.SPEN = 0;
  1599  0286  0029               	movlb	9	; select bank9
  1600  0287  1395               	bcf	21,7	;volatile
  1601                           
  1602                           ;4sw1fan.c: 340: RC2STAbits.CREN = 0;
  1603  0288  1215               	bcf	21,4	;volatile
  1604                           
  1605                           ;4sw1fan.c: 341: for(int dataBufferCounter = 0; dataBufferCounter< 8; dataBufferCounter+
      +                          +)
  1606  0289  0022               	movlb	2	; select bank2
  1607  028A  01E2               	clrf	main@dataBufferCounter_486^(0+256)
  1608  028B  01E3               	clrf	(main@dataBufferCounter_486+1)^(0+256)
  1609  028C  0863               	movf	(main@dataBufferCounter_486+1)^(0+256),w
  1610  028D  3A80               	xorlw	128
  1611  028E  0020               	movlb	0	; select bank0
  1612  028F  00C3               	movwf	??_main
  1613  0290  3080               	movlw	128
  1614  0291  0243               	subwf	??_main,w
  1615  0292  1D03               	skipz
  1616  0293  2A97               	goto	u3535
  1617  0294  3008               	movlw	8
  1618  0295  0022               	movlb	2	; select bank2
  1619  0296  0262               	subwf	main@dataBufferCounter_486^(0+256),w
  1620  0297                     u3535:	
  1621  0297  1803               	btfsc	3,0
  1622  0298  2AB6               	goto	l233
  1623  0299                     l3178:	
  1624                           
  1625                           ;4sw1fan.c: 342: {
  1626                           ;4sw1fan.c: 343: touchpanleReceivedDatabuffer[dataBufferCounter] = '#';
  1627  0299  3023               	movlw	35
  1628  029A  0020               	movlb	0	; select bank0
  1629  029B  00C3               	movwf	??_main
  1630  029C  0022               	movlb	2	; select bank2
  1631  029D  0862               	movf	main@dataBufferCounter_486^(0+256),w
  1632  029E  3EA0               	addlw	(low (_touchpanleReceivedDatabuffer| 0))& (0+255)
  1633  029F  0086               	movwf	6
  1634  02A0  0187               	clrf	7
  1635  02A1  0020               	movlb	0	; select bank0
  1636  02A2  0843               	movf	??_main,w
  1637  02A3  0081               	movwf	1
  1638  02A4  3001               	movlw	1
  1639  02A5  0022               	movlb	2	; select bank2
  1640  02A6  07E2               	addwf	main@dataBufferCounter_486^(0+256),f
  1641  02A7  3000               	movlw	0
  1642  02A8  3DE3               	addwfc	(main@dataBufferCounter_486+1)^(0+256),f
  1643  02A9  0863               	movf	(main@dataBufferCounter_486+1)^(0+256),w
  1644  02AA  3A80               	xorlw	128
  1645  02AB  0020               	movlb	0	; select bank0
  1646  02AC  00C3               	movwf	??_main
  1647  02AD  3080               	movlw	128
  1648  02AE  0243               	subwf	??_main,w
  1649  02AF  1D03               	skipz
  1650  02B0  2AB4               	goto	u3545
  1651  02B1  3008               	movlw	8
  1652  02B2  0022               	movlb	2	; select bank2
  1653  02B3  0262               	subwf	main@dataBufferCounter_486^(0+256),w
  1654  02B4                     u3545:	
  1655  02B4  1C03               	skipc
  1656  02B5  2A99               	goto	l3178
  1657  02B6                     l233:	
  1658                           
  1659                           ;4sw1fan.c: 344: }
  1660                           ;4sw1fan.c: 345: RC2STAbits.CREN = 1;
  1661  02B6  0029               	movlb	9	; select bank9
  1662  02B7  1615               	bsf	21,4	;volatile
  1663                           
  1664                           ;4sw1fan.c: 346: RC2STAbits.SPEN=1;
  1665  02B8  1795               	bsf	21,7	;volatile
  1666  02B9                     l3184:	
  1667                           
  1668                           ;4sw1fan.c: 347: }
  1669                           ;4sw1fan.c: 349: }
  1670                           ;4sw1fan.c: 358: int man=1;
  1671  02B9  3001               	movlw	1
  1672  02BA  0022               	movlb	2	; select bank2
  1673  02BB  00E4               	movwf	main@man^(0+256)
  1674  02BC  3000               	movlw	0
  1675  02BD  00E5               	movwf	(main@man^(0+256)+1)
  1676                           
  1677                           ;4sw1fan.c: 359: if(copy_parentalLockBuffer[1] == '0' && PORTFbits.RF7 == 0 && R1 == 0)
  1678  02BE  3030               	movlw	48
  1679  02BF  0021               	movlb	1	; select bank1
  1680  02C0  0631               	xorwf	(_copy_parentalLockBuffer^(0+128)+1),w
  1681  02C1  1D03               	btfss	3,2
  1682  02C2  2B0F               	goto	l3200
  1683  02C3  0025               	movlb	5	; select bank5
  1684  02C4  1B8C               	btfsc	12,7	;volatile
  1685  02C5  2B0F               	goto	l3200
  1686  02C6  0021               	movlb	1	; select bank1
  1687  02C7  086C               	movf	_R1^(0+128),w
  1688  02C8  046D               	iorwf	(_R1+1)^(0+128),w
  1689  02C9  1D03               	btfss	3,2
  1690  02CA  2B0F               	goto	l3200
  1691                           
  1692                           ;4sw1fan.c: 360: {
  1693                           ;4sw1fan.c: 363: TX1REG = 'R';_delay((unsigned long)((1)*(16000000/4000.0)));
  1694  02CB  3052               	movlw	82
  1695  02CC  0023               	movlb	3	; select bank3
  1696  02CD  009A               	movwf	26	;volatile
  1697  02CE  3006               	movlw	6
  1698  02CF  0020               	movlb	0	; select bank0
  1699  02D0  00C3               	movwf	??_main
  1700  02D1  3030               	movlw	48
  1701  02D2                     u3917:	
  1702  02D2  0B89               	decfsz	9,f
  1703  02D3  2AD2               	goto	u3917
  1704  02D4  0BC3               	decfsz	??_main,f
  1705  02D5  2AD2               	goto	u3917
  1706  02D6  0000               	nop
  1707                           
  1708                           ;4sw1fan.c: 364: TX1REG = '0';_delay((unsigned long)((1)*(16000000/4000.0)));
  1709  02D7  3030               	movlw	48
  1710  02D8  0023               	movlb	3	; select bank3
  1711  02D9  009A               	movwf	26	;volatile
  1712  02DA  3006               	movlw	6
  1713  02DB  0020               	movlb	0	; select bank0
  1714  02DC  00C3               	movwf	??_main
  1715  02DD  3030               	movlw	48
  1716  02DE                     u3927:	
  1717  02DE  0B89               	decfsz	9,f
  1718  02DF  2ADE               	goto	u3927
  1719  02E0  0BC3               	decfsz	??_main,f
  1720  02E1  2ADE               	goto	u3927
  1721  02E2  0000               	nop
  1722                           
  1723                           ;4sw1fan.c: 365: TX1REG = '0';_delay((unsigned long)((1)*(16000000/4000.0)));
  1724  02E3  3030               	movlw	48
  1725  02E4  0023               	movlb	3	; select bank3
  1726  02E5  009A               	movwf	26	;volatile
  1727  02E6  3006               	movlw	6
  1728  02E7  0020               	movlb	0	; select bank0
  1729  02E8  00C3               	movwf	??_main
  1730  02E9  3030               	movlw	48
  1731  02EA                     u3937:	
  1732  02EA  0B89               	decfsz	9,f
  1733  02EB  2AEA               	goto	u3937
  1734  02EC  0BC3               	decfsz	??_main,f
  1735  02ED  2AEA               	goto	u3937
  1736  02EE  0000               	nop
  1737                           
  1738                           ;4sw1fan.c: 366: TX1REG = '1';_delay((unsigned long)((1)*(16000000/4000.0)));
  1739  02EF  3031               	movlw	49
  1740  02F0  0023               	movlb	3	; select bank3
  1741  02F1  009A               	movwf	26	;volatile
  1742  02F2  3006               	movlw	6
  1743  02F3  0020               	movlb	0	; select bank0
  1744  02F4  00C3               	movwf	??_main
  1745  02F5  3030               	movlw	48
  1746  02F6                     u3947:	
  1747  02F6  0B89               	decfsz	9,f
  1748  02F7  2AF6               	goto	u3947
  1749  02F8  0BC3               	decfsz	??_main,f
  1750  02F9  2AF6               	goto	u3947
  1751  02FA  0000               	nop
  1752                           
  1753                           ;4sw1fan.c: 367: send_Response_To_Touch('A','0','0');
  1754  02FB  3030               	movlw	48
  1755  02FC  0020               	movlb	0	; select bank0
  1756  02FD  00C3               	movwf	??_main
  1757  02FE  0843               	movf	??_main,w
  1758  02FF  00A0               	movwf	send_Response_To_Touch@switch_status
  1759  0300  3030               	movlw	48
  1760  0301  00C4               	movwf	??_main+1
  1761  0302  0844               	movf	??_main+1,w
  1762  0303  00A1               	movwf	send_Response_To_Touch@fan_speed
  1763  0304  3041               	movlw	65
  1764  0305  3186  26A9  3181   	fcall	_send_Response_To_Touch
  1765                           
  1766                           ;4sw1fan.c: 368: RF1=0;
  1767  0308  0025               	movlb	5	; select bank5
  1768  0309  108C               	bcf	12,1	;volatile
  1769                           
  1770                           ;4sw1fan.c: 371: R1=1;
  1771  030A  3001               	movlw	1
  1772  030B  0021               	movlb	1	; select bank1
  1773  030C  00EC               	movwf	_R1^(0+128)
  1774  030D  3000               	movlw	0
  1775  030E  00ED               	movwf	(_R1^(0+128)+1)
  1776  030F                     l3200:	
  1777                           
  1778                           ;4sw1fan.c: 373: }
  1779                           ;4sw1fan.c: 375: if(copy_parentalLockBuffer[1] == '0' && PORTFbits.RF7 == 1 && R1 == 1)
  1780  030F  3030               	movlw	48
  1781  0310  0021               	movlb	1	; select bank1
  1782  0311  0631               	xorwf	(_copy_parentalLockBuffer^(0+128)+1),w
  1783  0312  1D03               	btfss	3,2
  1784  0313  2B5E               	goto	l3214
  1785  0314  0025               	movlb	5	; select bank5
  1786  0315  1F8C               	btfss	12,7	;volatile
  1787  0316  2B5E               	goto	l3214
  1788  0317  0021               	movlb	1	; select bank1
  1789  0318  036C               	decf	_R1^(0+128),w
  1790  0319  046D               	iorwf	(_R1+1)^(0+128),w
  1791  031A  1D03               	btfss	3,2
  1792  031B  2B5E               	goto	l3214
  1793                           
  1794                           ;4sw1fan.c: 376: {
  1795                           ;4sw1fan.c: 381: TX1REG = 'R';_delay((unsigned long)((1)*(16000000/4000.0)));
  1796  031C  3052               	movlw	82
  1797  031D  0023               	movlb	3	; select bank3
  1798  031E  009A               	movwf	26	;volatile
  1799  031F  3006               	movlw	6
  1800  0320  0020               	movlb	0	; select bank0
  1801  0321  00C3               	movwf	??_main
  1802  0322  3030               	movlw	48
  1803  0323                     u3957:	
  1804  0323  0B89               	decfsz	9,f
  1805  0324  2B23               	goto	u3957
  1806  0325  0BC3               	decfsz	??_main,f
  1807  0326  2B23               	goto	u3957
  1808  0327  0000               	nop
  1809                           
  1810                           ;4sw1fan.c: 382: TX1REG = '1';_delay((unsigned long)((1)*(16000000/4000.0)));
  1811  0328  3031               	movlw	49
  1812  0329  0023               	movlb	3	; select bank3
  1813  032A  009A               	movwf	26	;volatile
  1814  032B  3006               	movlw	6
  1815  032C  0020               	movlb	0	; select bank0
  1816  032D  00C3               	movwf	??_main
  1817  032E  3030               	movlw	48
  1818  032F                     u3967:	
  1819  032F  0B89               	decfsz	9,f
  1820  0330  2B2F               	goto	u3967
  1821  0331  0BC3               	decfsz	??_main,f
  1822  0332  2B2F               	goto	u3967
  1823  0333  0000               	nop
  1824                           
  1825                           ;4sw1fan.c: 383: TX1REG = '0';_delay((unsigned long)((1)*(16000000/4000.0)));
  1826  0334  3030               	movlw	48
  1827  0335  0023               	movlb	3	; select bank3
  1828  0336  009A               	movwf	26	;volatile
  1829  0337  3006               	movlw	6
  1830  0338  0020               	movlb	0	; select bank0
  1831  0339  00C3               	movwf	??_main
  1832  033A  3030               	movlw	48
  1833  033B                     u3977:	
  1834  033B  0B89               	decfsz	9,f
  1835  033C  2B3B               	goto	u3977
  1836  033D  0BC3               	decfsz	??_main,f
  1837  033E  2B3B               	goto	u3977
  1838  033F  0000               	nop
  1839                           
  1840                           ;4sw1fan.c: 384: TX1REG = '1';_delay((unsigned long)((1)*(16000000/4000.0)));
  1841  0340  3031               	movlw	49
  1842  0341  0023               	movlb	3	; select bank3
  1843  0342  009A               	movwf	26	;volatile
  1844  0343  3006               	movlw	6
  1845  0344  0020               	movlb	0	; select bank0
  1846  0345  00C3               	movwf	??_main
  1847  0346  3030               	movlw	48
  1848  0347                     u3987:	
  1849  0347  0B89               	decfsz	9,f
  1850  0348  2B47               	goto	u3987
  1851  0349  0BC3               	decfsz	??_main,f
  1852  034A  2B47               	goto	u3987
  1853  034B  0000               	nop
  1854                           
  1855                           ;4sw1fan.c: 385: send_Response_To_Touch('A','1','0');
  1856  034C  3031               	movlw	49
  1857  034D  0020               	movlb	0	; select bank0
  1858  034E  00C3               	movwf	??_main
  1859  034F  0843               	movf	??_main,w
  1860  0350  00A0               	movwf	send_Response_To_Touch@switch_status
  1861  0351  3030               	movlw	48
  1862  0352  00C4               	movwf	??_main+1
  1863  0353  0844               	movf	??_main+1,w
  1864  0354  00A1               	movwf	send_Response_To_Touch@fan_speed
  1865  0355  3041               	movlw	65
  1866  0356  3186  26A9  3181   	fcall	_send_Response_To_Touch
  1867                           
  1868                           ;4sw1fan.c: 386: RF1=1;
  1869  0359  0025               	movlb	5	; select bank5
  1870  035A  148C               	bsf	12,1	;volatile
  1871                           
  1872                           ;4sw1fan.c: 389: R1=0;
  1873  035B  0021               	movlb	1	; select bank1
  1874  035C  01EC               	clrf	_R1^(0+128)
  1875  035D  01ED               	clrf	(_R1+1)^(0+128)
  1876  035E                     l3214:	
  1877                           
  1878                           ;4sw1fan.c: 390: }
  1879                           ;4sw1fan.c: 394: if(copy_parentalLockBuffer[2] == '0' && PORTFbits.RF5 == 0 && R2 == 0)
  1880  035E  3030               	movlw	48
  1881  035F  0021               	movlb	1	; select bank1
  1882  0360  0632               	xorwf	(_copy_parentalLockBuffer^(0+128)+2),w
  1883  0361  1D03               	btfss	3,2
  1884  0362  2BAF               	goto	l3228
  1885  0363  0025               	movlb	5	; select bank5
  1886  0364  1A8C               	btfsc	12,5	;volatile
  1887  0365  2BAF               	goto	l3228
  1888  0366  0021               	movlb	1	; select bank1
  1889  0367  086A               	movf	_R2^(0+128),w
  1890  0368  046B               	iorwf	(_R2+1)^(0+128),w
  1891  0369  1D03               	btfss	3,2
  1892  036A  2BAF               	goto	l3228
  1893                           
  1894                           ;4sw1fan.c: 395: {
  1895                           ;4sw1fan.c: 399: TX1REG = 'R';_delay((unsigned long)((1)*(16000000/4000.0)));
  1896  036B  3052               	movlw	82
  1897  036C  0023               	movlb	3	; select bank3
  1898  036D  009A               	movwf	26	;volatile
  1899  036E  3006               	movlw	6
  1900  036F  0020               	movlb	0	; select bank0
  1901  0370  00C3               	movwf	??_main
  1902  0371  3030               	movlw	48
  1903  0372                     u3997:	
  1904  0372  0B89               	decfsz	9,f
  1905  0373  2B72               	goto	u3997
  1906  0374  0BC3               	decfsz	??_main,f
  1907  0375  2B72               	goto	u3997
  1908  0376  0000               	nop
  1909                           
  1910                           ;4sw1fan.c: 400: TX1REG = '0';_delay((unsigned long)((1)*(16000000/4000.0)));
  1911  0377  3030               	movlw	48
  1912  0378  0023               	movlb	3	; select bank3
  1913  0379  009A               	movwf	26	;volatile
  1914  037A  3006               	movlw	6
  1915  037B  0020               	movlb	0	; select bank0
  1916  037C  00C3               	movwf	??_main
  1917  037D  3030               	movlw	48
  1918  037E                     u4007:	
  1919  037E  0B89               	decfsz	9,f
  1920  037F  2B7E               	goto	u4007
  1921  0380  0BC3               	decfsz	??_main,f
  1922  0381  2B7E               	goto	u4007
  1923  0382  0000               	nop
  1924                           
  1925                           ;4sw1fan.c: 401: TX1REG = '0';_delay((unsigned long)((1)*(16000000/4000.0)));
  1926  0383  3030               	movlw	48
  1927  0384  0023               	movlb	3	; select bank3
  1928  0385  009A               	movwf	26	;volatile
  1929  0386  3006               	movlw	6
  1930  0387  0020               	movlb	0	; select bank0
  1931  0388  00C3               	movwf	??_main
  1932  0389  3030               	movlw	48
  1933  038A                     u4017:	
  1934  038A  0B89               	decfsz	9,f
  1935  038B  2B8A               	goto	u4017
  1936  038C  0BC3               	decfsz	??_main,f
  1937  038D  2B8A               	goto	u4017
  1938  038E  0000               	nop
  1939                           
  1940                           ;4sw1fan.c: 402: TX1REG = '2';_delay((unsigned long)((1)*(16000000/4000.0)));
  1941  038F  3032               	movlw	50
  1942  0390  0023               	movlb	3	; select bank3
  1943  0391  009A               	movwf	26	;volatile
  1944  0392  3006               	movlw	6
  1945  0393  0020               	movlb	0	; select bank0
  1946  0394  00C3               	movwf	??_main
  1947  0395  3030               	movlw	48
  1948  0396                     u4027:	
  1949  0396  0B89               	decfsz	9,f
  1950  0397  2B96               	goto	u4027
  1951  0398  0BC3               	decfsz	??_main,f
  1952  0399  2B96               	goto	u4027
  1953  039A  0000               	nop
  1954                           
  1955                           ;4sw1fan.c: 403: send_Response_To_Touch('B','0','0');
  1956  039B  3030               	movlw	48
  1957  039C  0020               	movlb	0	; select bank0
  1958  039D  00C3               	movwf	??_main
  1959  039E  0843               	movf	??_main,w
  1960  039F  00A0               	movwf	send_Response_To_Touch@switch_status
  1961  03A0  3030               	movlw	48
  1962  03A1  00C4               	movwf	??_main+1
  1963  03A2  0844               	movf	??_main+1,w
  1964  03A3  00A1               	movwf	send_Response_To_Touch@fan_speed
  1965  03A4  3042               	movlw	66
  1966  03A5  3186  26A9  3181   	fcall	_send_Response_To_Touch
  1967                           
  1968                           ;4sw1fan.c: 404: RF0=0;
  1969  03A8  0025               	movlb	5	; select bank5
  1970  03A9  100C               	bcf	12,0	;volatile
  1971                           
  1972                           ;4sw1fan.c: 407: R2=1;
  1973  03AA  3001               	movlw	1
  1974  03AB  0021               	movlb	1	; select bank1
  1975  03AC  00EA               	movwf	_R2^(0+128)
  1976  03AD  3000               	movlw	0
  1977  03AE  00EB               	movwf	(_R2^(0+128)+1)
  1978  03AF                     l3228:	
  1979                           
  1980                           ;4sw1fan.c: 408: }
  1981                           ;4sw1fan.c: 410: if(copy_parentalLockBuffer[2] == '0' && PORTFbits.RF5 == 1 && R2 == 1)
  1982  03AF  3030               	movlw	48
  1983  03B0  0021               	movlb	1	; select bank1
  1984  03B1  0632               	xorwf	(_copy_parentalLockBuffer^(0+128)+2),w
  1985  03B2  1D03               	btfss	3,2
  1986  03B3  2BFE               	goto	l3242
  1987  03B4  0025               	movlb	5	; select bank5
  1988  03B5  1E8C               	btfss	12,5	;volatile
  1989  03B6  2BFE               	goto	l3242
  1990  03B7  0021               	movlb	1	; select bank1
  1991  03B8  036A               	decf	_R2^(0+128),w
  1992  03B9  046B               	iorwf	(_R2+1)^(0+128),w
  1993  03BA  1D03               	btfss	3,2
  1994  03BB  2BFE               	goto	l3242
  1995                           
  1996                           ;4sw1fan.c: 411: {
  1997                           ;4sw1fan.c: 415: TX1REG = 'R';_delay((unsigned long)((1)*(16000000/4000.0)));
  1998  03BC  3052               	movlw	82
  1999  03BD  0023               	movlb	3	; select bank3
  2000  03BE  009A               	movwf	26	;volatile
  2001  03BF  3006               	movlw	6
  2002  03C0  0020               	movlb	0	; select bank0
  2003  03C1  00C3               	movwf	??_main
  2004  03C2  3030               	movlw	48
  2005  03C3                     u4037:	
  2006  03C3  0B89               	decfsz	9,f
  2007  03C4  2BC3               	goto	u4037
  2008  03C5  0BC3               	decfsz	??_main,f
  2009  03C6  2BC3               	goto	u4037
  2010  03C7  0000               	nop
  2011                           
  2012                           ;4sw1fan.c: 416: TX1REG = '1';_delay((unsigned long)((1)*(16000000/4000.0)));
  2013  03C8  3031               	movlw	49
  2014  03C9  0023               	movlb	3	; select bank3
  2015  03CA  009A               	movwf	26	;volatile
  2016  03CB  3006               	movlw	6
  2017  03CC  0020               	movlb	0	; select bank0
  2018  03CD  00C3               	movwf	??_main
  2019  03CE  3030               	movlw	48
  2020  03CF                     u4047:	
  2021  03CF  0B89               	decfsz	9,f
  2022  03D0  2BCF               	goto	u4047
  2023  03D1  0BC3               	decfsz	??_main,f
  2024  03D2  2BCF               	goto	u4047
  2025  03D3  0000               	nop
  2026                           
  2027                           ;4sw1fan.c: 417: TX1REG = '0';_delay((unsigned long)((1)*(16000000/4000.0)));
  2028  03D4  3030               	movlw	48
  2029  03D5  0023               	movlb	3	; select bank3
  2030  03D6  009A               	movwf	26	;volatile
  2031  03D7  3006               	movlw	6
  2032  03D8  0020               	movlb	0	; select bank0
  2033  03D9  00C3               	movwf	??_main
  2034  03DA  3030               	movlw	48
  2035  03DB                     u4057:	
  2036  03DB  0B89               	decfsz	9,f
  2037  03DC  2BDB               	goto	u4057
  2038  03DD  0BC3               	decfsz	??_main,f
  2039  03DE  2BDB               	goto	u4057
  2040  03DF  0000               	nop
  2041                           
  2042                           ;4sw1fan.c: 418: TX1REG = '2';_delay((unsigned long)((1)*(16000000/4000.0)));
  2043  03E0  3032               	movlw	50
  2044  03E1  0023               	movlb	3	; select bank3
  2045  03E2  009A               	movwf	26	;volatile
  2046  03E3  3006               	movlw	6
  2047  03E4  0020               	movlb	0	; select bank0
  2048  03E5  00C3               	movwf	??_main
  2049  03E6  3030               	movlw	48
  2050  03E7                     u4067:	
  2051  03E7  0B89               	decfsz	9,f
  2052  03E8  2BE7               	goto	u4067
  2053  03E9  0BC3               	decfsz	??_main,f
  2054  03EA  2BE7               	goto	u4067
  2055  03EB  0000               	nop
  2056                           
  2057                           ;4sw1fan.c: 419: send_Response_To_Touch('B','1','0');
  2058  03EC  3031               	movlw	49
  2059  03ED  0020               	movlb	0	; select bank0
  2060  03EE  00C3               	movwf	??_main
  2061  03EF  0843               	movf	??_main,w
  2062  03F0  00A0               	movwf	send_Response_To_Touch@switch_status
  2063  03F1  3030               	movlw	48
  2064  03F2  00C4               	movwf	??_main+1
  2065  03F3  0844               	movf	??_main+1,w
  2066  03F4  00A1               	movwf	send_Response_To_Touch@fan_speed
  2067  03F5  3042               	movlw	66
  2068  03F6  3186  26A9  3181   	fcall	_send_Response_To_Touch
  2069                           
  2070                           ;4sw1fan.c: 420: RF0=1;
  2071  03F9  0025               	movlb	5	; select bank5
  2072  03FA  140C               	bsf	12,0	;volatile
  2073                           
  2074                           ;4sw1fan.c: 423: R2=0;
  2075  03FB  0021               	movlb	1	; select bank1
  2076  03FC  01EA               	clrf	_R2^(0+128)
  2077  03FD  01EB               	clrf	(_R2+1)^(0+128)
  2078  03FE                     l3242:	
  2079                           
  2080                           ;4sw1fan.c: 424: }
  2081                           ;4sw1fan.c: 429: if(copy_parentalLockBuffer[3] == '0' && PORTFbits.RF3 == 0 && R3 == 0)
  2082  03FE  3030               	movlw	48
  2083  03FF  0021               	movlb	1	; select bank1
  2084  0400  0633               	xorwf	(_copy_parentalLockBuffer^(0+128)+3),w
  2085  0401  1D03               	btfss	3,2
  2086  0402  2C57               	goto	l3260
  2087  0403  0025               	movlb	5	; select bank5
  2088  0404  198C               	btfsc	12,3	;volatile
  2089  0405  2C57               	goto	l3260
  2090  0406  0021               	movlb	1	; select bank1
  2091  0407  0868               	movf	_R3^(0+128),w
  2092  0408  0469               	iorwf	(_R3+1)^(0+128),w
  2093  0409  1D03               	btfss	3,2
  2094  040A  2C57               	goto	l3260
  2095                           
  2096                           ;4sw1fan.c: 430: {
  2097                           ;4sw1fan.c: 431: if(man == 1)
  2098  040B  0022               	movlb	2	; select bank2
  2099  040C  0364               	decf	main@man^(0+256),w
  2100  040D  0465               	iorwf	(main@man+1)^(0+256),w
  2101  040E  1D03               	btfss	3,2
  2102  040F  2C4F               	goto	l3256
  2103                           
  2104                           ;4sw1fan.c: 432: {
  2105                           ;4sw1fan.c: 434: TX1REG = 'R';_delay((unsigned long)((1)*(16000000/4000.0)));
  2106  0410  3052               	movlw	82
  2107  0411  0023               	movlb	3	; select bank3
  2108  0412  009A               	movwf	26	;volatile
  2109  0413  3006               	movlw	6
  2110  0414  0020               	movlb	0	; select bank0
  2111  0415  00C3               	movwf	??_main
  2112  0416  3030               	movlw	48
  2113  0417                     u4077:	
  2114  0417  0B89               	decfsz	9,f
  2115  0418  2C17               	goto	u4077
  2116  0419  0BC3               	decfsz	??_main,f
  2117  041A  2C17               	goto	u4077
  2118  041B  0000               	nop
  2119                           
  2120                           ;4sw1fan.c: 435: TX1REG = '0';_delay((unsigned long)((1)*(16000000/4000.0)));
  2121  041C  3030               	movlw	48
  2122  041D  0023               	movlb	3	; select bank3
  2123  041E  009A               	movwf	26	;volatile
  2124  041F  3006               	movlw	6
  2125  0420  0020               	movlb	0	; select bank0
  2126  0421  00C3               	movwf	??_main
  2127  0422  3030               	movlw	48
  2128  0423                     u4087:	
  2129  0423  0B89               	decfsz	9,f
  2130  0424  2C23               	goto	u4087
  2131  0425  0BC3               	decfsz	??_main,f
  2132  0426  2C23               	goto	u4087
  2133  0427  0000               	nop
  2134                           
  2135                           ;4sw1fan.c: 436: TX1REG = '0';_delay((unsigned long)((1)*(16000000/4000.0)));
  2136  0428  3030               	movlw	48
  2137  0429  0023               	movlb	3	; select bank3
  2138  042A  009A               	movwf	26	;volatile
  2139  042B  3006               	movlw	6
  2140  042C  0020               	movlb	0	; select bank0
  2141  042D  00C3               	movwf	??_main
  2142  042E  3030               	movlw	48
  2143  042F                     u4097:	
  2144  042F  0B89               	decfsz	9,f
  2145  0430  2C2F               	goto	u4097
  2146  0431  0BC3               	decfsz	??_main,f
  2147  0432  2C2F               	goto	u4097
  2148  0433  0000               	nop
  2149                           
  2150                           ;4sw1fan.c: 437: TX1REG = '3';_delay((unsigned long)((1)*(16000000/4000.0)));
  2151  0434  3033               	movlw	51
  2152  0435  0023               	movlb	3	; select bank3
  2153  0436  009A               	movwf	26	;volatile
  2154  0437  3006               	movlw	6
  2155  0438  0020               	movlb	0	; select bank0
  2156  0439  00C3               	movwf	??_main
  2157  043A  3030               	movlw	48
  2158  043B                     u4107:	
  2159  043B  0B89               	decfsz	9,f
  2160  043C  2C3B               	goto	u4107
  2161  043D  0BC3               	decfsz	??_main,f
  2162  043E  2C3B               	goto	u4107
  2163  043F  0000               	nop
  2164                           
  2165                           ;4sw1fan.c: 438: send_Response_To_Touch('C','0','0');
  2166  0440  3030               	movlw	48
  2167  0441  0020               	movlb	0	; select bank0
  2168  0442  00C3               	movwf	??_main
  2169  0443  0843               	movf	??_main,w
  2170  0444  00A0               	movwf	send_Response_To_Touch@switch_status
  2171  0445  3030               	movlw	48
  2172  0446  00C4               	movwf	??_main+1
  2173  0447  0844               	movf	??_main+1,w
  2174  0448  00A1               	movwf	send_Response_To_Touch@fan_speed
  2175  0449  3043               	movlw	67
  2176  044A  3186  26A9  3181   	fcall	_send_Response_To_Touch
  2177                           
  2178                           ;4sw1fan.c: 439: RA3=0;
  2179  044D  0020               	movlb	0	; select bank0
  2180  044E  118C               	bcf	12,3	;volatile
  2181  044F                     l3256:	
  2182                           
  2183                           ;4sw1fan.c: 440: }
  2184                           ;4sw1fan.c: 441: man=0;
  2185  044F  0022               	movlb	2	; select bank2
  2186  0450  01E4               	clrf	main@man^(0+256)
  2187  0451  01E5               	clrf	(main@man+1)^(0+256)
  2188                           
  2189                           ;4sw1fan.c: 442: R3=1;
  2190  0452  3001               	movlw	1
  2191  0453  0021               	movlb	1	; select bank1
  2192  0454  00E8               	movwf	_R3^(0+128)
  2193  0455  3000               	movlw	0
  2194  0456  00E9               	movwf	(_R3^(0+128)+1)
  2195  0457                     l3260:	
  2196                           
  2197                           ;4sw1fan.c: 444: }
  2198                           ;4sw1fan.c: 446: if(copy_parentalLockBuffer[3] == '0' && PORTFbits.RF3 == 1 && R3 == 1)
  2199  0457  3030               	movlw	48
  2200  0458  0021               	movlb	1	; select bank1
  2201  0459  0633               	xorwf	(_copy_parentalLockBuffer^(0+128)+3),w
  2202  045A  1D03               	btfss	3,2
  2203  045B  2CAE               	goto	l3278
  2204  045C  0025               	movlb	5	; select bank5
  2205  045D  1D8C               	btfss	12,3	;volatile
  2206  045E  2CAE               	goto	l3278
  2207  045F  0021               	movlb	1	; select bank1
  2208  0460  0368               	decf	_R3^(0+128),w
  2209  0461  0469               	iorwf	(_R3+1)^(0+128),w
  2210  0462  1D03               	btfss	3,2
  2211  0463  2CAE               	goto	l3278
  2212                           
  2213                           ;4sw1fan.c: 447: {
  2214                           ;4sw1fan.c: 448: if(man==1)
  2215  0464  0022               	movlb	2	; select bank2
  2216  0465  0364               	decf	main@man^(0+256),w
  2217  0466  0465               	iorwf	(main@man+1)^(0+256),w
  2218  0467  1D03               	btfss	3,2
  2219  0468  2CA8               	goto	l3274
  2220                           
  2221                           ;4sw1fan.c: 449: {
  2222                           ;4sw1fan.c: 451: TX1REG = 'R';_delay((unsigned long)((1)*(16000000/4000.0)));
  2223  0469  3052               	movlw	82
  2224  046A  0023               	movlb	3	; select bank3
  2225  046B  009A               	movwf	26	;volatile
  2226  046C  3006               	movlw	6
  2227  046D  0020               	movlb	0	; select bank0
  2228  046E  00C3               	movwf	??_main
  2229  046F  3030               	movlw	48
  2230  0470                     u4117:	
  2231  0470  0B89               	decfsz	9,f
  2232  0471  2C70               	goto	u4117
  2233  0472  0BC3               	decfsz	??_main,f
  2234  0473  2C70               	goto	u4117
  2235  0474  0000               	nop
  2236                           
  2237                           ;4sw1fan.c: 452: TX1REG = '1';_delay((unsigned long)((1)*(16000000/4000.0)));
  2238  0475  3031               	movlw	49
  2239  0476  0023               	movlb	3	; select bank3
  2240  0477  009A               	movwf	26	;volatile
  2241  0478  3006               	movlw	6
  2242  0479  0020               	movlb	0	; select bank0
  2243  047A  00C3               	movwf	??_main
  2244  047B  3030               	movlw	48
  2245  047C                     u4127:	
  2246  047C  0B89               	decfsz	9,f
  2247  047D  2C7C               	goto	u4127
  2248  047E  0BC3               	decfsz	??_main,f
  2249  047F  2C7C               	goto	u4127
  2250  0480  0000               	nop
  2251                           
  2252                           ;4sw1fan.c: 453: TX1REG = '0';_delay((unsigned long)((1)*(16000000/4000.0)));
  2253  0481  3030               	movlw	48
  2254  0482  0023               	movlb	3	; select bank3
  2255  0483  009A               	movwf	26	;volatile
  2256  0484  3006               	movlw	6
  2257  0485  0020               	movlb	0	; select bank0
  2258  0486  00C3               	movwf	??_main
  2259  0487  3030               	movlw	48
  2260  0488                     u4137:	
  2261  0488  0B89               	decfsz	9,f
  2262  0489  2C88               	goto	u4137
  2263  048A  0BC3               	decfsz	??_main,f
  2264  048B  2C88               	goto	u4137
  2265  048C  0000               	nop
  2266                           
  2267                           ;4sw1fan.c: 454: TX1REG = '3';_delay((unsigned long)((1)*(16000000/4000.0)));
  2268  048D  3033               	movlw	51
  2269  048E  0023               	movlb	3	; select bank3
  2270  048F  009A               	movwf	26	;volatile
  2271  0490  3006               	movlw	6
  2272  0491  0020               	movlb	0	; select bank0
  2273  0492  00C3               	movwf	??_main
  2274  0493  3030               	movlw	48
  2275  0494                     u4147:	
  2276  0494  0B89               	decfsz	9,f
  2277  0495  2C94               	goto	u4147
  2278  0496  0BC3               	decfsz	??_main,f
  2279  0497  2C94               	goto	u4147
  2280  0498  0000               	nop
  2281                           
  2282                           ;4sw1fan.c: 455: send_Response_To_Touch('C','1','0');
  2283  0499  3031               	movlw	49
  2284  049A  0020               	movlb	0	; select bank0
  2285  049B  00C3               	movwf	??_main
  2286  049C  0843               	movf	??_main,w
  2287  049D  00A0               	movwf	send_Response_To_Touch@switch_status
  2288  049E  3030               	movlw	48
  2289  049F  00C4               	movwf	??_main+1
  2290  04A0  0844               	movf	??_main+1,w
  2291  04A1  00A1               	movwf	send_Response_To_Touch@fan_speed
  2292  04A2  3043               	movlw	67
  2293  04A3  3186  26A9  3181   	fcall	_send_Response_To_Touch
  2294                           
  2295                           ;4sw1fan.c: 456: RA3=1;
  2296  04A6  0020               	movlb	0	; select bank0
  2297  04A7  158C               	bsf	12,3	;volatile
  2298  04A8                     l3274:	
  2299                           
  2300                           ;4sw1fan.c: 457: }
  2301                           ;4sw1fan.c: 458: man=0;
  2302  04A8  0022               	movlb	2	; select bank2
  2303  04A9  01E4               	clrf	main@man^(0+256)
  2304  04AA  01E5               	clrf	(main@man+1)^(0+256)
  2305                           
  2306                           ;4sw1fan.c: 459: R3=0;
  2307  04AB  0021               	movlb	1	; select bank1
  2308  04AC  01E8               	clrf	_R3^(0+128)
  2309  04AD  01E9               	clrf	(_R3+1)^(0+128)
  2310  04AE                     l3278:	
  2311                           
  2312                           ;4sw1fan.c: 461: }
  2313                           ;4sw1fan.c: 466: if(copy_parentalLockBuffer[4] == '0' && PORTFbits.RF2 == 0 && R4 == 0)
  2314  04AE  3030               	movlw	48
  2315  04AF  0021               	movlb	1	; select bank1
  2316  04B0  0634               	xorwf	(_copy_parentalLockBuffer^(0+128)+4),w
  2317  04B1  1D03               	btfss	3,2
  2318  04B2  2D07               	goto	l3296
  2319  04B3  0025               	movlb	5	; select bank5
  2320  04B4  190C               	btfsc	12,2	;volatile
  2321  04B5  2D07               	goto	l3296
  2322  04B6  0021               	movlb	1	; select bank1
  2323  04B7  0866               	movf	_R4^(0+128),w
  2324  04B8  0467               	iorwf	(_R4+1)^(0+128),w
  2325  04B9  1D03               	btfss	3,2
  2326  04BA  2D07               	goto	l3296
  2327                           
  2328                           ;4sw1fan.c: 467: {
  2329                           ;4sw1fan.c: 468: if(man==1)
  2330  04BB  0022               	movlb	2	; select bank2
  2331  04BC  0364               	decf	main@man^(0+256),w
  2332  04BD  0465               	iorwf	(main@man+1)^(0+256),w
  2333  04BE  1D03               	btfss	3,2
  2334  04BF  2CFF               	goto	l3292
  2335                           
  2336                           ;4sw1fan.c: 469: {
  2337                           ;4sw1fan.c: 471: TX1REG = 'R';_delay((unsigned long)((1)*(16000000/4000.0)));
  2338  04C0  3052               	movlw	82
  2339  04C1  0023               	movlb	3	; select bank3
  2340  04C2  009A               	movwf	26	;volatile
  2341  04C3  3006               	movlw	6
  2342  04C4  0020               	movlb	0	; select bank0
  2343  04C5  00C3               	movwf	??_main
  2344  04C6  3030               	movlw	48
  2345  04C7                     u4157:	
  2346  04C7  0B89               	decfsz	9,f
  2347  04C8  2CC7               	goto	u4157
  2348  04C9  0BC3               	decfsz	??_main,f
  2349  04CA  2CC7               	goto	u4157
  2350  04CB  0000               	nop
  2351                           
  2352                           ;4sw1fan.c: 472: TX1REG = '0';_delay((unsigned long)((1)*(16000000/4000.0)));
  2353  04CC  3030               	movlw	48
  2354  04CD  0023               	movlb	3	; select bank3
  2355  04CE  009A               	movwf	26	;volatile
  2356  04CF  3006               	movlw	6
  2357  04D0  0020               	movlb	0	; select bank0
  2358  04D1  00C3               	movwf	??_main
  2359  04D2  3030               	movlw	48
  2360  04D3                     u4167:	
  2361  04D3  0B89               	decfsz	9,f
  2362  04D4  2CD3               	goto	u4167
  2363  04D5  0BC3               	decfsz	??_main,f
  2364  04D6  2CD3               	goto	u4167
  2365  04D7  0000               	nop
  2366                           
  2367                           ;4sw1fan.c: 473: TX1REG = '0';_delay((unsigned long)((1)*(16000000/4000.0)));
  2368  04D8  3030               	movlw	48
  2369  04D9  0023               	movlb	3	; select bank3
  2370  04DA  009A               	movwf	26	;volatile
  2371  04DB  3006               	movlw	6
  2372  04DC  0020               	movlb	0	; select bank0
  2373  04DD  00C3               	movwf	??_main
  2374  04DE  3030               	movlw	48
  2375  04DF                     u4177:	
  2376  04DF  0B89               	decfsz	9,f
  2377  04E0  2CDF               	goto	u4177
  2378  04E1  0BC3               	decfsz	??_main,f
  2379  04E2  2CDF               	goto	u4177
  2380  04E3  0000               	nop
  2381                           
  2382                           ;4sw1fan.c: 474: TX1REG = '4';_delay((unsigned long)((1)*(16000000/4000.0)));
  2383  04E4  3034               	movlw	52
  2384  04E5  0023               	movlb	3	; select bank3
  2385  04E6  009A               	movwf	26	;volatile
  2386  04E7  3006               	movlw	6
  2387  04E8  0020               	movlb	0	; select bank0
  2388  04E9  00C3               	movwf	??_main
  2389  04EA  3030               	movlw	48
  2390  04EB                     u4187:	
  2391  04EB  0B89               	decfsz	9,f
  2392  04EC  2CEB               	goto	u4187
  2393  04ED  0BC3               	decfsz	??_main,f
  2394  04EE  2CEB               	goto	u4187
  2395  04EF  0000               	nop
  2396                           
  2397                           ;4sw1fan.c: 475: send_Response_To_Touch('D','0','0');
  2398  04F0  3030               	movlw	48
  2399  04F1  0020               	movlb	0	; select bank0
  2400  04F2  00C3               	movwf	??_main
  2401  04F3  0843               	movf	??_main,w
  2402  04F4  00A0               	movwf	send_Response_To_Touch@switch_status
  2403  04F5  3030               	movlw	48
  2404  04F6  00C4               	movwf	??_main+1
  2405  04F7  0844               	movf	??_main+1,w
  2406  04F8  00A1               	movwf	send_Response_To_Touch@fan_speed
  2407  04F9  3044               	movlw	68
  2408  04FA  3186  26A9  3181   	fcall	_send_Response_To_Touch
  2409                           
  2410                           ;4sw1fan.c: 476: RA2=0;
  2411  04FD  0020               	movlb	0	; select bank0
  2412  04FE  110C               	bcf	12,2	;volatile
  2413  04FF                     l3292:	
  2414                           
  2415                           ;4sw1fan.c: 477: }
  2416                           ;4sw1fan.c: 478: man=0;
  2417  04FF  0022               	movlb	2	; select bank2
  2418  0500  01E4               	clrf	main@man^(0+256)
  2419  0501  01E5               	clrf	(main@man+1)^(0+256)
  2420                           
  2421                           ;4sw1fan.c: 479: R4=1;
  2422  0502  3001               	movlw	1
  2423  0503  0021               	movlb	1	; select bank1
  2424  0504  00E6               	movwf	_R4^(0+128)
  2425  0505  3000               	movlw	0
  2426  0506  00E7               	movwf	(_R4^(0+128)+1)
  2427  0507                     l3296:	
  2428                           
  2429                           ;4sw1fan.c: 481: }
  2430                           ;4sw1fan.c: 483: if(copy_parentalLockBuffer[4] == '0' && PORTFbits.RF2 == 1 && R4 == 1)
  2431  0507  3030               	movlw	48
  2432  0508  0021               	movlb	1	; select bank1
  2433  0509  0634               	xorwf	(_copy_parentalLockBuffer^(0+128)+4),w
  2434  050A  1D03               	btfss	3,2
  2435  050B  2D5E               	goto	l3314
  2436  050C  0025               	movlb	5	; select bank5
  2437  050D  1D0C               	btfss	12,2	;volatile
  2438  050E  2D5E               	goto	l3314
  2439  050F  0021               	movlb	1	; select bank1
  2440  0510  0366               	decf	_R4^(0+128),w
  2441  0511  0467               	iorwf	(_R4+1)^(0+128),w
  2442  0512  1D03               	btfss	3,2
  2443  0513  2D5E               	goto	l3314
  2444                           
  2445                           ;4sw1fan.c: 484: {
  2446                           ;4sw1fan.c: 485: if(man==1)
  2447  0514  0022               	movlb	2	; select bank2
  2448  0515  0364               	decf	main@man^(0+256),w
  2449  0516  0465               	iorwf	(main@man+1)^(0+256),w
  2450  0517  1D03               	btfss	3,2
  2451  0518  2D58               	goto	l3310
  2452                           
  2453                           ;4sw1fan.c: 486: {
  2454                           ;4sw1fan.c: 488: TX1REG = 'R';_delay((unsigned long)((1)*(16000000/4000.0)));
  2455  0519  3052               	movlw	82
  2456  051A  0023               	movlb	3	; select bank3
  2457  051B  009A               	movwf	26	;volatile
  2458  051C  3006               	movlw	6
  2459  051D  0020               	movlb	0	; select bank0
  2460  051E  00C3               	movwf	??_main
  2461  051F  3030               	movlw	48
  2462  0520                     u4197:	
  2463  0520  0B89               	decfsz	9,f
  2464  0521  2D20               	goto	u4197
  2465  0522  0BC3               	decfsz	??_main,f
  2466  0523  2D20               	goto	u4197
  2467  0524  0000               	nop
  2468                           
  2469                           ;4sw1fan.c: 489: TX1REG = '1';_delay((unsigned long)((1)*(16000000/4000.0)));
  2470  0525  3031               	movlw	49
  2471  0526  0023               	movlb	3	; select bank3
  2472  0527  009A               	movwf	26	;volatile
  2473  0528  3006               	movlw	6
  2474  0529  0020               	movlb	0	; select bank0
  2475  052A  00C3               	movwf	??_main
  2476  052B  3030               	movlw	48
  2477  052C                     u4207:	
  2478  052C  0B89               	decfsz	9,f
  2479  052D  2D2C               	goto	u4207
  2480  052E  0BC3               	decfsz	??_main,f
  2481  052F  2D2C               	goto	u4207
  2482  0530  0000               	nop
  2483                           
  2484                           ;4sw1fan.c: 490: TX1REG = '0';_delay((unsigned long)((1)*(16000000/4000.0)));
  2485  0531  3030               	movlw	48
  2486  0532  0023               	movlb	3	; select bank3
  2487  0533  009A               	movwf	26	;volatile
  2488  0534  3006               	movlw	6
  2489  0535  0020               	movlb	0	; select bank0
  2490  0536  00C3               	movwf	??_main
  2491  0537  3030               	movlw	48
  2492  0538                     u4217:	
  2493  0538  0B89               	decfsz	9,f
  2494  0539  2D38               	goto	u4217
  2495  053A  0BC3               	decfsz	??_main,f
  2496  053B  2D38               	goto	u4217
  2497  053C  0000               	nop
  2498                           
  2499                           ;4sw1fan.c: 491: TX1REG = '4';_delay((unsigned long)((1)*(16000000/4000.0)));
  2500  053D  3034               	movlw	52
  2501  053E  0023               	movlb	3	; select bank3
  2502  053F  009A               	movwf	26	;volatile
  2503  0540  3006               	movlw	6
  2504  0541  0020               	movlb	0	; select bank0
  2505  0542  00C3               	movwf	??_main
  2506  0543  3030               	movlw	48
  2507  0544                     u4227:	
  2508  0544  0B89               	decfsz	9,f
  2509  0545  2D44               	goto	u4227
  2510  0546  0BC3               	decfsz	??_main,f
  2511  0547  2D44               	goto	u4227
  2512  0548  0000               	nop
  2513                           
  2514                           ;4sw1fan.c: 492: send_Response_To_Touch('D','1','0');
  2515  0549  3031               	movlw	49
  2516  054A  0020               	movlb	0	; select bank0
  2517  054B  00C3               	movwf	??_main
  2518  054C  0843               	movf	??_main,w
  2519  054D  00A0               	movwf	send_Response_To_Touch@switch_status
  2520  054E  3030               	movlw	48
  2521  054F  00C4               	movwf	??_main+1
  2522  0550  0844               	movf	??_main+1,w
  2523  0551  00A1               	movwf	send_Response_To_Touch@fan_speed
  2524  0552  3044               	movlw	68
  2525  0553  3186  26A9  3181   	fcall	_send_Response_To_Touch
  2526                           
  2527                           ;4sw1fan.c: 493: RA2=1;
  2528  0556  0020               	movlb	0	; select bank0
  2529  0557  150C               	bsf	12,2	;volatile
  2530  0558                     l3310:	
  2531                           
  2532                           ;4sw1fan.c: 494: }
  2533                           ;4sw1fan.c: 495: man=0;
  2534  0558  0022               	movlb	2	; select bank2
  2535  0559  01E4               	clrf	main@man^(0+256)
  2536  055A  01E5               	clrf	(main@man+1)^(0+256)
  2537                           
  2538                           ;4sw1fan.c: 496: R4=0;
  2539  055B  0021               	movlb	1	; select bank1
  2540  055C  01E6               	clrf	_R4^(0+128)
  2541  055D  01E7               	clrf	(_R4+1)^(0+128)
  2542  055E                     l3314:	
  2543                           
  2544                           ;4sw1fan.c: 498: }
  2545                           ;4sw1fan.c: 500: if(copy_parentalLockBuffer[5] == '0' && PORTAbits.RA5 == 1 && R5==1 )
  2546  055E  3030               	movlw	48
  2547  055F  0021               	movlb	1	; select bank1
  2548  0560  0635               	xorwf	(_copy_parentalLockBuffer^(0+128)+5),w
  2549  0561  1D03               	btfss	3,2
  2550  0562  2DB6               	goto	l3332
  2551  0563  0020               	movlb	0	; select bank0
  2552  0564  1E8C               	btfss	12,5	;volatile
  2553  0565  2DB6               	goto	l3332
  2554  0566  0021               	movlb	1	; select bank1
  2555  0567  0364               	decf	_R5^(0+128),w
  2556  0568  0465               	iorwf	(_R5+1)^(0+128),w
  2557  0569  1D03               	btfss	3,2
  2558  056A  2DB6               	goto	l3332
  2559                           
  2560                           ;4sw1fan.c: 501: {
  2561                           ;4sw1fan.c: 502: if(man==1)
  2562  056B  0022               	movlb	2	; select bank2
  2563  056C  0364               	decf	main@man^(0+256),w
  2564  056D  0465               	iorwf	(main@man+1)^(0+256),w
  2565  056E  1D03               	btfss	3,2
  2566  056F  2DAE               	goto	l3328
  2567                           
  2568                           ;4sw1fan.c: 503: {
  2569                           ;4sw1fan.c: 504: TX1REG='R';_delay((unsigned long)((1)*(16000000/4000.0)));
  2570  0570  3052               	movlw	82
  2571  0571  0023               	movlb	3	; select bank3
  2572  0572  009A               	movwf	26	;volatile
  2573  0573  3006               	movlw	6
  2574  0574  0020               	movlb	0	; select bank0
  2575  0575  00C3               	movwf	??_main
  2576  0576  3030               	movlw	48
  2577  0577                     u4237:	
  2578  0577  0B89               	decfsz	9,f
  2579  0578  2D77               	goto	u4237
  2580  0579  0BC3               	decfsz	??_main,f
  2581  057A  2D77               	goto	u4237
  2582  057B  0000               	nop
  2583                           
  2584                           ;4sw1fan.c: 505: TX1REG='1';_delay((unsigned long)((1)*(16000000/4000.0)));
  2585  057C  3031               	movlw	49
  2586  057D  0023               	movlb	3	; select bank3
  2587  057E  009A               	movwf	26	;volatile
  2588  057F  3006               	movlw	6
  2589  0580  0020               	movlb	0	; select bank0
  2590  0581  00C3               	movwf	??_main
  2591  0582  3030               	movlw	48
  2592  0583                     u4247:	
  2593  0583  0B89               	decfsz	9,f
  2594  0584  2D83               	goto	u4247
  2595  0585  0BC3               	decfsz	??_main,f
  2596  0586  2D83               	goto	u4247
  2597  0587  0000               	nop
  2598                           
  2599                           ;4sw1fan.c: 506: TX1REG='0';_delay((unsigned long)((1)*(16000000/4000.0)));
  2600  0588  3030               	movlw	48
  2601  0589  0023               	movlb	3	; select bank3
  2602  058A  009A               	movwf	26	;volatile
  2603  058B  3006               	movlw	6
  2604  058C  0020               	movlb	0	; select bank0
  2605  058D  00C3               	movwf	??_main
  2606  058E  3030               	movlw	48
  2607  058F                     u4257:	
  2608  058F  0B89               	decfsz	9,f
  2609  0590  2D8F               	goto	u4257
  2610  0591  0BC3               	decfsz	??_main,f
  2611  0592  2D8F               	goto	u4257
  2612  0593  0000               	nop
  2613                           
  2614                           ;4sw1fan.c: 507: TX1REG='5';_delay((unsigned long)((1)*(16000000/4000.0)));
  2615  0594  3035               	movlw	53
  2616  0595  0023               	movlb	3	; select bank3
  2617  0596  009A               	movwf	26	;volatile
  2618  0597  3006               	movlw	6
  2619  0598  0020               	movlb	0	; select bank0
  2620  0599  00C3               	movwf	??_main
  2621  059A  3030               	movlw	48
  2622  059B                     u4267:	
  2623  059B  0B89               	decfsz	9,f
  2624  059C  2D9B               	goto	u4267
  2625  059D  0BC3               	decfsz	??_main,f
  2626  059E  2D9B               	goto	u4267
  2627  059F  0000               	nop
  2628                           
  2629                           ;4sw1fan.c: 508: RE3 = 0;
  2630  05A0  0020               	movlb	0	; select bank0
  2631  05A1  1190               	bcf	16,3	;volatile
  2632                           
  2633                           ;4sw1fan.c: 509: send_Response_To_Touch('P','1','1');
  2634  05A2  3031               	movlw	49
  2635  05A3  00C3               	movwf	??_main
  2636  05A4  0843               	movf	??_main,w
  2637  05A5  00A0               	movwf	send_Response_To_Touch@switch_status
  2638  05A6  3031               	movlw	49
  2639  05A7  00C4               	movwf	??_main+1
  2640  05A8  0844               	movf	??_main+1,w
  2641  05A9  00A1               	movwf	send_Response_To_Touch@fan_speed
  2642  05AA  3050               	movlw	80
  2643  05AB  3186  26A9  3181   	fcall	_send_Response_To_Touch
  2644  05AE                     l3328:	
  2645                           
  2646                           ;4sw1fan.c: 511: }
  2647                           ;4sw1fan.c: 512: man=1;
  2648  05AE  3001               	movlw	1
  2649  05AF  0022               	movlb	2	; select bank2
  2650  05B0  00E4               	movwf	main@man^(0+256)
  2651  05B1  3000               	movlw	0
  2652  05B2  00E5               	movwf	(main@man^(0+256)+1)
  2653                           
  2654                           ;4sw1fan.c: 514: R5=0;
  2655  05B3  0021               	movlb	1	; select bank1
  2656  05B4  01E4               	clrf	_R5^(0+128)
  2657  05B5  01E5               	clrf	(_R5+1)^(0+128)
  2658  05B6                     l3332:	
  2659                           
  2660                           ;4sw1fan.c: 515: }
  2661                           ;4sw1fan.c: 516: if(copy_parentalLockBuffer[5] == '0' && PORTAbits.RA5 == 0 && R5==0)
  2662  05B6  3030               	movlw	48
  2663  05B7  0021               	movlb	1	; select bank1
  2664  05B8  0635               	xorwf	(_copy_parentalLockBuffer^(0+128)+5),w
  2665  05B9  1D03               	btfss	3,2
  2666  05BA  2971               	goto	l3076
  2667  05BB  0020               	movlb	0	; select bank0
  2668  05BC  1A8C               	btfsc	12,5	;volatile
  2669  05BD  2971               	goto	l3076
  2670  05BE  0021               	movlb	1	; select bank1
  2671  05BF  0864               	movf	_R5^(0+128),w
  2672  05C0  0465               	iorwf	(_R5+1)^(0+128),w
  2673  05C1  1D03               	btfss	3,2
  2674  05C2  2971               	goto	l3076
  2675                           
  2676                           ;4sw1fan.c: 517: {
  2677                           ;4sw1fan.c: 518: if(man==1)
  2678  05C3  0022               	movlb	2	; select bank2
  2679  05C4  0364               	decf	main@man^(0+256),w
  2680  05C5  0465               	iorwf	(main@man+1)^(0+256),w
  2681  05C6  1D03               	btfss	3,2
  2682  05C7  2E33               	goto	l3352
  2683                           
  2684                           ;4sw1fan.c: 519: {
  2685                           ;4sw1fan.c: 520: TX1REG='R';_delay((unsigned long)((1)*(16000000/4000.0)));
  2686  05C8  3052               	movlw	82
  2687  05C9  0023               	movlb	3	; select bank3
  2688  05CA  009A               	movwf	26	;volatile
  2689  05CB  3006               	movlw	6
  2690  05CC  0020               	movlb	0	; select bank0
  2691  05CD  00C3               	movwf	??_main
  2692  05CE  3030               	movlw	48
  2693  05CF                     u4277:	
  2694  05CF  0B89               	decfsz	9,f
  2695  05D0  2DCF               	goto	u4277
  2696  05D1  0BC3               	decfsz	??_main,f
  2697  05D2  2DCF               	goto	u4277
  2698  05D3  0000               	nop
  2699                           
  2700                           ;4sw1fan.c: 521: TX1REG='0';_delay((unsigned long)((1)*(16000000/4000.0)));
  2701  05D4  3030               	movlw	48
  2702  05D5  0023               	movlb	3	; select bank3
  2703  05D6  009A               	movwf	26	;volatile
  2704  05D7  3006               	movlw	6
  2705  05D8  0020               	movlb	0	; select bank0
  2706  05D9  00C3               	movwf	??_main
  2707  05DA  3030               	movlw	48
  2708  05DB                     u4287:	
  2709  05DB  0B89               	decfsz	9,f
  2710  05DC  2DDB               	goto	u4287
  2711  05DD  0BC3               	decfsz	??_main,f
  2712  05DE  2DDB               	goto	u4287
  2713  05DF  0000               	nop
  2714                           
  2715                           ;4sw1fan.c: 522: TX1REG='0';_delay((unsigned long)((1)*(16000000/4000.0)));
  2716  05E0  3030               	movlw	48
  2717  05E1  0023               	movlb	3	; select bank3
  2718  05E2  009A               	movwf	26	;volatile
  2719  05E3  3006               	movlw	6
  2720  05E4  0020               	movlb	0	; select bank0
  2721  05E5  00C3               	movwf	??_main
  2722  05E6  3030               	movlw	48
  2723  05E7                     u4297:	
  2724  05E7  0B89               	decfsz	9,f
  2725  05E8  2DE7               	goto	u4297
  2726  05E9  0BC3               	decfsz	??_main,f
  2727  05EA  2DE7               	goto	u4297
  2728  05EB  0000               	nop
  2729                           
  2730                           ;4sw1fan.c: 523: TX1REG='5';_delay((unsigned long)((1)*(16000000/4000.0)));
  2731  05EC  3035               	movlw	53
  2732  05ED  0023               	movlb	3	; select bank3
  2733  05EE  009A               	movwf	26	;volatile
  2734  05EF  3006               	movlw	6
  2735  05F0  0020               	movlb	0	; select bank0
  2736  05F1  00C3               	movwf	??_main
  2737  05F2  3030               	movlw	48
  2738  05F3                     u4307:	
  2739  05F3  0B89               	decfsz	9,f
  2740  05F4  2DF3               	goto	u4307
  2741  05F5  0BC3               	decfsz	??_main,f
  2742  05F6  2DF3               	goto	u4307
  2743  05F7  0000               	nop
  2744                           
  2745                           ;4sw1fan.c: 524: RE3=1;
  2746  05F8  0020               	movlb	0	; select bank0
  2747  05F9  1590               	bsf	16,3	;volatile
  2748                           
  2749                           ;4sw1fan.c: 525: _delay((unsigned long)((1000)*(16000000/4000.0)));
  2750  05FA  3015               	movlw	21
  2751  05FB  0020               	movlb	0	; select bank0
  2752  05FC  00C4               	movwf	??_main+1
  2753  05FD  304B               	movlw	75
  2754  05FE  00C3               	movwf	??_main
  2755  05FF  30BE               	movlw	190
  2756  0600                     u4317:	
  2757  0600  0B89               	decfsz	9,f
  2758  0601  2E00               	goto	u4317
  2759  0602  0BC3               	decfsz	??_main,f
  2760  0603  2E00               	goto	u4317
  2761  0604  0BC4               	decfsz	??_main+1,f
  2762  0605  2E00               	goto	u4317
  2763  0606  0000               	nop
  2764                           
  2765                           ;4sw1fan.c: 526: RE5=0;
  2766  0607  0020               	movlb	0	; select bank0
  2767  0608  1290               	bcf	16,5	;volatile
  2768                           
  2769                           ;4sw1fan.c: 527: _delay((unsigned long)((1000)*(16000000/4000.0)));
  2770  0609  3015               	movlw	21
  2771  060A  0020               	movlb	0	; select bank0
  2772  060B  00C4               	movwf	??_main+1
  2773  060C  304B               	movlw	75
  2774  060D  00C3               	movwf	??_main
  2775  060E  30BE               	movlw	190
  2776  060F                     u4327:	
  2777  060F  0B89               	decfsz	9,f
  2778  0610  2E0F               	goto	u4327
  2779  0611  0BC3               	decfsz	??_main,f
  2780  0612  2E0F               	goto	u4327
  2781  0613  0BC4               	decfsz	??_main+1,f
  2782  0614  2E0F               	goto	u4327
  2783  0615  0000               	nop
  2784                           
  2785                           ;4sw1fan.c: 528: RE4=0;
  2786  0616  0020               	movlb	0	; select bank0
  2787  0617  1210               	bcf	16,4	;volatile
  2788                           
  2789                           ;4sw1fan.c: 529: _delay((unsigned long)((1000)*(16000000/4000.0)));
  2790  0618  3015               	movlw	21
  2791  0619  0020               	movlb	0	; select bank0
  2792  061A  00C4               	movwf	??_main+1
  2793  061B  304B               	movlw	75
  2794  061C  00C3               	movwf	??_main
  2795  061D  30BE               	movlw	190
  2796  061E                     u4337:	
  2797  061E  0B89               	decfsz	9,f
  2798  061F  2E1E               	goto	u4337
  2799  0620  0BC3               	decfsz	??_main,f
  2800  0621  2E1E               	goto	u4337
  2801  0622  0BC4               	decfsz	??_main+1,f
  2802  0623  2E1E               	goto	u4337
  2803  0624  0000               	nop
  2804                           
  2805                           ;4sw1fan.c: 530: RE1=0;
  2806  0625  0020               	movlb	0	; select bank0
  2807  0626  1090               	bcf	16,1	;volatile
  2808                           
  2809                           ;4sw1fan.c: 531: send_Response_To_Touch('P','0','0');
  2810  0627  3030               	movlw	48
  2811  0628  00C3               	movwf	??_main
  2812  0629  0843               	movf	??_main,w
  2813  062A  00A0               	movwf	send_Response_To_Touch@switch_status
  2814  062B  3030               	movlw	48
  2815  062C  00C4               	movwf	??_main+1
  2816  062D  0844               	movf	??_main+1,w
  2817  062E  00A1               	movwf	send_Response_To_Touch@fan_speed
  2818  062F  3050               	movlw	80
  2819  0630  3186  26A9  3181   	fcall	_send_Response_To_Touch
  2820  0633                     l3352:	
  2821                           
  2822                           ;4sw1fan.c: 533: }
  2823                           ;4sw1fan.c: 534: man=1;
  2824  0633  3001               	movlw	1
  2825  0634  0022               	movlb	2	; select bank2
  2826  0635  00E4               	movwf	main@man^(0+256)
  2827  0636  3000               	movlw	0
  2828  0637  00E5               	movwf	(main@man^(0+256)+1)
  2829                           
  2830                           ;4sw1fan.c: 536: R5=1;
  2831  0638  3001               	movlw	1
  2832  0639  0021               	movlb	1	; select bank1
  2833  063A  00E4               	movwf	_R5^(0+128)
  2834  063B  3000               	movlw	0
  2835  063C  00E5               	movwf	(_R5^(0+128)+1)
  2836  063D  2971               	goto	l3076
  2837  063E                     __end_of_main:	
  2838                           
  2839                           	psect	text1
  2840  0AA1                     __ptext1:	
  2841 ;; *************** function _errorsMain *****************
  2842 ;; Defined at:
  2843 ;;		line 925 in file "4sw1fan.c"
  2844 ;; Parameters:    Size  Location     Type
  2845 ;;  errNum          1    wreg     PTR unsigned char 
  2846 ;;		 -> ErrorNames(5), 
  2847 ;; Auto vars:     Size  Location     Type
  2848 ;;  errNum          1    3[BANK0 ] PTR unsigned char 
  2849 ;;		 -> ErrorNames(5), 
  2850 ;;  Tx_count        2    1[BANK0 ] int 
  2851 ;; Return value:  Size  Location     Type
  2852 ;;                  1    wreg      void 
  2853 ;; Registers used:
  2854 ;;		wreg, fsr1l, fsr1h, status,2, status,0
  2855 ;; Tracked objects:
  2856 ;;		On entry : 0/0
  2857 ;;		On exit  : 0/0
  2858 ;;		Unchanged: 0/0
  2859 ;; Data sizes:     COMMON   BANK0   BANK1   BANK2   BANK3   BANK4   BANK5   BANK6   BANK7   BANK8   BANK9
  2860 ;;      Params:         0       0       0       0       0       0       0       0       0       0       0
  2861 ;;      Locals:         0       3       0       0       0       0       0       0       0       0       0
  2862 ;;      Temps:          0       1       0       0       0       0       0       0       0       0       0
  2863 ;;      Totals:         0       4       0       0       0       0       0       0       0       0       0
  2864 ;;Total ram usage:        4 bytes
  2865 ;; Hardware stack levels used:    1
  2866 ;; Hardware stack levels required when called:    2
  2867 ;; This function calls:
  2868 ;;		Nothing
  2869 ;; This function is called by:
  2870 ;;		_main
  2871 ;; This function uses a non-reentrant model
  2872 ;;
  2873                           
  2874                           
  2875                           ;psect for function _errorsMain
  2876  0AA1                     _errorsMain:	
  2877                           
  2878                           ;incstack = 0
  2879                           ; Regs used in _errorsMain: [wreg+fsr1l+fsr1h+status,2+status,0]
  2880                           ;errorsMain@errNum stored from wreg
  2881  0AA1  0020               	movlb	0	; select bank0
  2882  0AA2  00A3               	movwf	errorsMain@errNum
  2883                           
  2884                           ;4sw1fan.c: 926: int Tx_count=0;
  2885  0AA3  01A1               	clrf	errorsMain@Tx_count
  2886  0AA4  01A2               	clrf	errorsMain@Tx_count+1
  2887  0AA5                     l2920:	
  2888                           ;4sw1fan.c: 927: while(Tx_count!=4)
  2889                           
  2890  0AA5  3004               	movlw	4
  2891  0AA6  0621               	xorwf	errorsMain@Tx_count,w
  2892  0AA7  0422               	iorwf	errorsMain@Tx_count+1,w
  2893  0AA8  1903               	btfsc	3,2
  2894  0AA9  0008               	return
  2895  0AAA                     l354:	
  2896                           ;4sw1fan.c: 928: {
  2897                           ;4sw1fan.c: 929: while (!TX1STAbits.TRMT);
  2898                           
  2899  0AAA  0023               	movlb	3	; select bank3
  2900  0AAB  1C9E               	btfss	30,1	;volatile
  2901  0AAC  2AAA               	goto	l354
  2902                           
  2903                           ;4sw1fan.c: 930: TX1REG = *errNum;
  2904  0AAD  0020               	movlb	0	; select bank0
  2905  0AAE  0823               	movf	errorsMain@errNum,w
  2906  0AAF  0086               	movwf	6
  2907  0AB0  0187               	clrf	7
  2908  0AB1  0801               	movf	1,w
  2909  0AB2  0023               	movlb	3	; select bank3
  2910  0AB3  009A               	movwf	26	;volatile
  2911                           
  2912                           ;4sw1fan.c: 931: *errNum++;
  2913  0AB4  3001               	movlw	1
  2914  0AB5  0020               	movlb	0	; select bank0
  2915  0AB6  00A0               	movwf	??_errorsMain
  2916  0AB7  0820               	movf	??_errorsMain,w
  2917  0AB8  07A3               	addwf	errorsMain@errNum,f
  2918                           
  2919                           ;4sw1fan.c: 932: Tx_count++;
  2920  0AB9  3001               	movlw	1
  2921  0ABA  07A1               	addwf	errorsMain@Tx_count,f
  2922  0ABB  3000               	movlw	0
  2923  0ABC  3DA2               	addwfc	errorsMain@Tx_count+1,f
  2924  0ABD  2AA5               	goto	l2920
  2925  0ABE                     __end_of_errorsMain:	
  2926                           
  2927                           	psect	text2
  2928  0AFB                     __ptext2:	
  2929 ;; *************** function _copyTouchpanelReceiveDataBuffer *****************
  2930 ;; Defined at:
  2931 ;;		line 972 in file "4sw1fan.c"
  2932 ;; Parameters:    Size  Location     Type
  2933 ;;		None
  2934 ;; Auto vars:     Size  Location     Type
  2935 ;;  dataBufferCo    2    1[BANK0 ] int 
  2936 ;; Return value:  Size  Location     Type
  2937 ;;                  1    wreg      void 
  2938 ;; Registers used:
  2939 ;;		wreg, fsr1l, fsr1h, status,2, status,0
  2940 ;; Tracked objects:
  2941 ;;		On entry : 0/0
  2942 ;;		On exit  : 0/0
  2943 ;;		Unchanged: 0/0
  2944 ;; Data sizes:     COMMON   BANK0   BANK1   BANK2   BANK3   BANK4   BANK5   BANK6   BANK7   BANK8   BANK9
  2945 ;;      Params:         0       0       0       0       0       0       0       0       0       0       0
  2946 ;;      Locals:         0       2       0       0       0       0       0       0       0       0       0
  2947 ;;      Temps:          0       1       0       0       0       0       0       0       0       0       0
  2948 ;;      Totals:         0       3       0       0       0       0       0       0       0       0       0
  2949 ;;Total ram usage:        3 bytes
  2950 ;; Hardware stack levels used:    1
  2951 ;; Hardware stack levels required when called:    2
  2952 ;; This function calls:
  2953 ;;		Nothing
  2954 ;; This function is called by:
  2955 ;;		_main
  2956 ;; This function uses a non-reentrant model
  2957 ;;
  2958                           
  2959                           
  2960                           ;psect for function _copyTouchpanelReceiveDataBuffer
  2961  0AFB                     _copyTouchpanelReceiveDataBuffer:	
  2962                           
  2963                           ;4sw1fan.c: 974: int dataBufferCounter=2;
  2964                           
  2965                           ;incstack = 0
  2966                           ; Regs used in _copyTouchpanelReceiveDataBuffer: [wreg+fsr1l+fsr1h+status,2+status,0]
  2967  0AFB  3002               	movlw	2
  2968  0AFC  0020               	movlb	0	; select bank0
  2969  0AFD  00A1               	movwf	copyTouchpanelReceiveDataBuffer@dataBufferCounter
  2970  0AFE  3000               	movlw	0
  2971  0AFF  00A2               	movwf	copyTouchpanelReceiveDataBuffer@dataBufferCounter+1
  2972                           
  2973                           ;4sw1fan.c: 975: for(dataBufferCounter=2; dataBufferCounter<5;dataBufferCounter++)
  2974  0B00  3002               	movlw	2
  2975  0B01  00A1               	movwf	copyTouchpanelReceiveDataBuffer@dataBufferCounter
  2976  0B02  3000               	movlw	0
  2977  0B03  00A2               	movwf	copyTouchpanelReceiveDataBuffer@dataBufferCounter+1
  2978  0B04                     L1:	
  2979  0B04  0822               	movf	copyTouchpanelReceiveDataBuffer@dataBufferCounter+1,w
  2980  0B05  3A80               	xorlw	128
  2981  0B06  00A0               	movwf	??_copyTouchpanelReceiveDataBuffer
  2982  0B07  3080               	movlw	128
  2983  0B08  0220               	subwf	??_copyTouchpanelReceiveDataBuffer,w
  2984  0B09  1D03               	skipz
  2985  0B0A  2B0D               	goto	u3055
  2986  0B0B  3005               	movlw	5
  2987  0B0C  0221               	subwf	copyTouchpanelReceiveDataBuffer@dataBufferCounter,w
  2988  0B0D                     u3055:	
  2989  0B0D  1803               	btfsc	3,0
  2990  0B0E  0008               	return
  2991                           
  2992                           ;4sw1fan.c: 976: {
  2993                           ;4sw1fan.c: 977: tempReceiveTouchpanelDataBuffer[dataBufferCounter-2] = touchpanleReceiv
      +                          edDatabuffer[dataBufferCounter];
  2994  0B0F  0020               	movlb	0	; select bank0
  2995  0B10  0821               	movf	copyTouchpanelReceiveDataBuffer@dataBufferCounter,w
  2996  0B11  3EA0               	addlw	(low (_touchpanleReceivedDatabuffer| 0))& (0+255)
  2997  0B12  0086               	movwf	6
  2998  0B13  0187               	clrf	7
  2999  0B14  0801               	movf	1,w
  3000  0B15  00A0               	movwf	??_copyTouchpanelReceiveDataBuffer
  3001  0B16  0821               	movf	copyTouchpanelReceiveDataBuffer@dataBufferCounter,w
  3002  0B17  3EFE               	addlw	254
  3003  0B18  3ED0               	addlw	(low (_tempReceiveTouchpanelDataBuffer| 0))& (0+255)
  3004  0B19  0086               	movwf	6
  3005  0B1A  0187               	clrf	7
  3006  0B1B  0820               	movf	??_copyTouchpanelReceiveDataBuffer,w
  3007  0B1C  0081               	movwf	1
  3008                           
  3009                           ;4sw1fan.c: 978: touchpanleReceivedDatabuffer[dataBufferCounter] = "#";
  3010  0B1D  3000               	movlw	(low (STR_1| (0+32768)))& (0+255)
  3011  0B1E  00A0               	movwf	??_copyTouchpanelReceiveDataBuffer
  3012  0B1F  0821               	movf	copyTouchpanelReceiveDataBuffer@dataBufferCounter,w
  3013  0B20  3EA0               	addlw	(low (_touchpanleReceivedDatabuffer| 0))& (0+255)
  3014  0B21  0086               	movwf	6
  3015  0B22  0187               	clrf	7
  3016  0B23  0820               	movf	??_copyTouchpanelReceiveDataBuffer,w
  3017  0B24  0081               	movwf	1
  3018  0B25  3001               	movlw	1
  3019  0B26  07A1               	addwf	copyTouchpanelReceiveDataBuffer@dataBufferCounter,f
  3020  0B27  3000               	movlw	0
  3021  0B28  3DA2               	addwfc	copyTouchpanelReceiveDataBuffer@dataBufferCounter+1,f
  3022  0B29  2B04               	goto	L1
  3023  0B2A                     __end_of_copyTouchpanelReceiveDataBuffer:	
  3024                           
  3025                           	psect	text3
  3026  0B2A                     __ptext3:	
  3027 ;; *************** function _copyReceivedDataBuffer *****************
  3028 ;; Defined at:
  3029 ;;		line 897 in file "4sw1fan.c"
  3030 ;; Parameters:    Size  Location     Type
  3031 ;;		None
  3032 ;; Auto vars:     Size  Location     Type
  3033 ;;  dataBufferCo    2    1[BANK0 ] int 
  3034 ;; Return value:  Size  Location     Type
  3035 ;;                  1    wreg      void 
  3036 ;; Registers used:
  3037 ;;		wreg, fsr1l, fsr1h, status,2, status,0
  3038 ;; Tracked objects:
  3039 ;;		On entry : 0/0
  3040 ;;		On exit  : 0/0
  3041 ;;		Unchanged: 0/0
  3042 ;; Data sizes:     COMMON   BANK0   BANK1   BANK2   BANK3   BANK4   BANK5   BANK6   BANK7   BANK8   BANK9
  3043 ;;      Params:         0       0       0       0       0       0       0       0       0       0       0
  3044 ;;      Locals:         0       2       0       0       0       0       0       0       0       0       0
  3045 ;;      Temps:          0       1       0       0       0       0       0       0       0       0       0
  3046 ;;      Totals:         0       3       0       0       0       0       0       0       0       0       0
  3047 ;;Total ram usage:        3 bytes
  3048 ;; Hardware stack levels used:    1
  3049 ;; Hardware stack levels required when called:    2
  3050 ;; This function calls:
  3051 ;;		Nothing
  3052 ;; This function is called by:
  3053 ;;		_main
  3054 ;; This function uses a non-reentrant model
  3055 ;;
  3056                           
  3057                           
  3058                           ;psect for function _copyReceivedDataBuffer
  3059  0B2A                     _copyReceivedDataBuffer:	
  3060                           
  3061                           ;4sw1fan.c: 898: int dataBufferCounter=2;
  3062                           
  3063                           ;incstack = 0
  3064                           ; Regs used in _copyReceivedDataBuffer: [wreg+fsr1l+fsr1h+status,2+status,0]
  3065  0B2A  3002               	movlw	2
  3066  0B2B  0020               	movlb	0	; select bank0
  3067  0B2C  00A1               	movwf	copyReceivedDataBuffer@dataBufferCounter
  3068  0B2D  3000               	movlw	0
  3069  0B2E  00A2               	movwf	copyReceivedDataBuffer@dataBufferCounter+1
  3070                           
  3071                           ;4sw1fan.c: 899: for(dataBufferCounter=2;dataBufferCounter<9;dataBufferCounter++){
  3072  0B2F  3002               	movlw	2
  3073  0B30  00A1               	movwf	copyReceivedDataBuffer@dataBufferCounter
  3074  0B31  3000               	movlw	0
  3075  0B32  00A2               	movwf	copyReceivedDataBuffer@dataBufferCounter+1
  3076  0B33                     L2:	
  3077  0B33  0822               	movf	copyReceivedDataBuffer@dataBufferCounter+1,w
  3078  0B34  3A80               	xorlw	128
  3079  0B35  00A0               	movwf	??_copyReceivedDataBuffer
  3080  0B36  3080               	movlw	128
  3081  0B37  0220               	subwf	??_copyReceivedDataBuffer,w
  3082  0B38  1D03               	skipz
  3083  0B39  2B3C               	goto	u2835
  3084  0B3A  3009               	movlw	9
  3085  0B3B  0221               	subwf	copyReceivedDataBuffer@dataBufferCounter,w
  3086  0B3C                     u2835:	
  3087  0B3C  1803               	btfsc	3,0
  3088  0B3D  0008               	return
  3089                           
  3090                           ;4sw1fan.c: 900: tempReceivedDataBuffer[dataBufferCounter-2]=mainReceivedDataBuffer[data
      +                          BufferCounter];
  3091  0B3E  0020               	movlb	0	; select bank0
  3092  0B3F  0821               	movf	copyReceivedDataBuffer@dataBufferCounter,w
  3093  0B40  3E20               	addlw	(low (_mainReceivedDataBuffer| (0+256)))& (0+255)
  3094  0B41  0086               	movwf	6
  3095  0B42  3001               	movlw	1	; select bank2/3
  3096  0B43  0087               	movwf	7
  3097  0B44  0801               	movf	1,w
  3098  0B45  00A0               	movwf	??_copyReceivedDataBuffer
  3099  0B46  0821               	movf	copyReceivedDataBuffer@dataBufferCounter,w
  3100  0B47  3EFE               	addlw	254
  3101  0B48  3E40               	addlw	(low (_tempReceivedDataBuffer| (0+256)))& (0+255)
  3102  0B49  0086               	movwf	6
  3103  0B4A  3001               	movlw	1	; select bank2/3
  3104  0B4B  0087               	movwf	7
  3105  0B4C  0820               	movf	??_copyReceivedDataBuffer,w
  3106  0B4D  0081               	movwf	1
  3107                           
  3108                           ;4sw1fan.c: 901: mainReceivedDataBuffer[dataBufferCounter]='#';
  3109  0B4E  3023               	movlw	35
  3110  0B4F  00A0               	movwf	??_copyReceivedDataBuffer
  3111  0B50  0821               	movf	copyReceivedDataBuffer@dataBufferCounter,w
  3112  0B51  3E20               	addlw	(low (_mainReceivedDataBuffer| (0+256)))& (0+255)
  3113  0B52  0086               	movwf	6
  3114  0B53  3001               	movlw	1	; select bank2/3
  3115  0B54  0087               	movwf	7
  3116  0B55  0820               	movf	??_copyReceivedDataBuffer,w
  3117  0B56  0081               	movwf	1
  3118  0B57  3001               	movlw	1
  3119  0B58  07A1               	addwf	copyReceivedDataBuffer@dataBufferCounter,f
  3120  0B59  3000               	movlw	0
  3121  0B5A  3DA2               	addwfc	copyReceivedDataBuffer@dataBufferCounter+1,f
  3122  0B5B  2B33               	goto	L2
  3123  0B5C                     __end_of_copyReceivedDataBuffer:	
  3124                           
  3125                           	psect	text4
  3126  0D5E                     __ptext4:	
  3127 ;; *************** function _applianceControl *****************
  3128 ;; Defined at:
  3129 ;;		line 543 in file "4sw1fan.c"
  3130 ;; Parameters:    Size  Location     Type
  3131 ;;  charSwitchMS    1    wreg     unsigned char 
  3132 ;;  charSwitchLS    1   14[BANK0 ] unsigned char 
  3133 ;;  charSwitchST    1   15[BANK0 ] unsigned char 
  3134 ;;  chDimmerSpee    1   16[BANK0 ] unsigned char 
  3135 ;;  chDimmerSpee    1   17[BANK0 ] unsigned char 
  3136 ;;  charParental    1   18[BANK0 ] unsigned char 
  3137 ;;  charFinalFra    1   19[BANK0 ] unsigned char 
  3138 ;; Auto vars:     Size  Location     Type
  3139 ;;  charSwitchMS    1   24[BANK0 ] unsigned char 
  3140 ;;  integerSwitc    2   33[BANK0 ] int 
  3141 ;;  integerSwitc    2   31[BANK0 ] int 
  3142 ;;  currentState    2   29[BANK0 ] int 
  3143 ;;  dimmerSpeedS    2   27[BANK0 ] unsigned char [2]
  3144 ;;  switchNumber    2   25[BANK0 ] unsigned char [2]
  3145 ;;  integerSpeed    2   22[BANK0 ] int 
  3146 ;; Return value:  Size  Location     Type
  3147 ;;                  1    wreg      void 
  3148 ;; Registers used:
  3149 ;;		wreg, fsr0l, fsr0h, fsr1l, fsr1h, status,2, status,0, pclath, cstack
  3150 ;; Tracked objects:
  3151 ;;		On entry : 0/0
  3152 ;;		On exit  : 0/0
  3153 ;;		Unchanged: 0/0
  3154 ;; Data sizes:     COMMON   BANK0   BANK1   BANK2   BANK3   BANK4   BANK5   BANK6   BANK7   BANK8   BANK9
  3155 ;;      Params:         0       6       0       0       0       0       0       0       0       0       0
  3156 ;;      Locals:         0      13       0       0       0       0       0       0       0       0       0
  3157 ;;      Temps:          0       2       0       0       0       0       0       0       0       0       0
  3158 ;;      Totals:         0      21       0       0       0       0       0       0       0       0       0
  3159 ;;Total ram usage:       21 bytes
  3160 ;; Hardware stack levels used:    1
  3161 ;; Hardware stack levels required when called:    4
  3162 ;; This function calls:
  3163 ;;		_atoi
  3164 ;;		_sendAcknowledgment
  3165 ;;		_send_Response_To_Touch
  3166 ;; This function is called by:
  3167 ;;		_main
  3168 ;; This function uses a non-reentrant model
  3169 ;;
  3170                           
  3171                           
  3172                           ;psect for function _applianceControl
  3173  0D5E                     _applianceControl:	
  3174                           
  3175                           ;incstack = 0
  3176                           ; Regs used in _applianceControl: [wreg-fsr1h+status,2+status,0+pclath+cstack]
  3177                           ;applianceControl@charSwitchMSB stored from wreg
  3178  0D5E  0020               	movlb	0	; select bank0
  3179  0D5F  00B8               	movwf	applianceControl@charSwitchMSB
  3180                           
  3181                           ;4sw1fan.c: 547: int integerSwitchNumber = 0;
  3182  0D60  01BF               	clrf	applianceControl@integerSwitchNumber
  3183  0D61  01C0               	clrf	applianceControl@integerSwitchNumber+1
  3184                           
  3185                           ;4sw1fan.c: 548: int integerSwitchState = 0;
  3186  0D62  01C1               	clrf	applianceControl@integerSwitchState
  3187  0D63  01C2               	clrf	applianceControl@integerSwitchState+1
  3188                           
  3189                           ;4sw1fan.c: 549: int integerSpeed = 0;
  3190  0D64  01B6               	clrf	applianceControl@integerSpeed
  3191  0D65  01B7               	clrf	applianceControl@integerSpeed+1
  3192                           
  3193                           ;4sw1fan.c: 550: int currentStateBufferPositions=0;
  3194  0D66  01BD               	clrf	applianceControl@currentStateBufferPositions
  3195  0D67  01BE               	clrf	applianceControl@currentStateBufferPositions+1
  3196                           
  3197                           ;4sw1fan.c: 554: char switchNumberStringBuffer[2]="#";
  3198  0D68  0862               	movf	applianceControl@F3789+1,w
  3199  0D69  00BA               	movwf	applianceControl@switchNumberStringBuffer+1
  3200  0D6A  0861               	movf	applianceControl@F3789,w
  3201  0D6B  00B9               	movwf	applianceControl@switchNumberStringBuffer
  3202                           
  3203                           ;4sw1fan.c: 555: char dimmerSpeedStringBuffer[2]="#";
  3204  0D6C  0860               	movf	applianceControl@F3791+1,w
  3205  0D6D  00BC               	movwf	applianceControl@dimmerSpeedStringBuffer+1
  3206  0D6E  085F               	movf	applianceControl@F3791,w
  3207  0D6F  00BB               	movwf	applianceControl@dimmerSpeedStringBuffer
  3208                           
  3209                           ;4sw1fan.c: 557: switchNumberStringBuffer[0]=charSwitchMSB;
  3210  0D70  0838               	movf	applianceControl@charSwitchMSB,w
  3211  0D71  00B4               	movwf	??_applianceControl
  3212  0D72  0834               	movf	??_applianceControl,w
  3213  0D73  00B9               	movwf	applianceControl@switchNumberStringBuffer
  3214                           
  3215                           ;4sw1fan.c: 558: switchNumberStringBuffer[1]=charSwitchLSB;
  3216  0D74  082E               	movf	applianceControl@charSwitchLSB,w
  3217  0D75  00B4               	movwf	??_applianceControl
  3218  0D76  0834               	movf	??_applianceControl,w
  3219  0D77  00BA               	movwf	applianceControl@switchNumberStringBuffer+1
  3220                           
  3221                           ;4sw1fan.c: 559: integerSwitchNumber = atoi(switchNumberStringBuffer);
  3222  0D78  3039               	movlw	(low (applianceControl@switchNumberStringBuffer| 0))& (0+255)
  3223  0D79  3186  263E  318D   	fcall	_atoi
  3224  0D7C  0020               	movlb	0	; select bank0
  3225  0D7D  0827               	movf	?_atoi+1,w
  3226  0D7E  00C0               	movwf	applianceControl@integerSwitchNumber+1
  3227  0D7F  0826               	movf	?_atoi,w
  3228  0D80  00BF               	movwf	applianceControl@integerSwitchNumber
  3229                           
  3230                           ;4sw1fan.c: 563: integerSwitchState = charSwitchSTATE-'0';
  3231  0D81  082F               	movf	applianceControl@charSwitchSTATE,w
  3232  0D82  3ED0               	addlw	208
  3233  0D83  00C1               	movwf	applianceControl@integerSwitchState
  3234  0D84  30FF               	movlw	255
  3235  0D85  1803               	skipnc
  3236  0D86  3000               	movlw	0
  3237  0D87  00C2               	movwf	applianceControl@integerSwitchState+1
  3238                           
  3239                           ;4sw1fan.c: 567: dimmerSpeedStringBuffer[0]=chDimmerSpeedMSB;
  3240  0D88  0830               	movf	applianceControl@chDimmerSpeedMSB,w
  3241  0D89  00B4               	movwf	??_applianceControl
  3242  0D8A  0834               	movf	??_applianceControl,w
  3243  0D8B  00BB               	movwf	applianceControl@dimmerSpeedStringBuffer
  3244                           
  3245                           ;4sw1fan.c: 568: dimmerSpeedStringBuffer[1]=chDimmerSpeedLSB;
  3246  0D8C  0831               	movf	applianceControl@chDimmerSpeedLSB,w
  3247  0D8D  00B4               	movwf	??_applianceControl
  3248  0D8E  0834               	movf	??_applianceControl,w
  3249  0D8F  00BC               	movwf	applianceControl@dimmerSpeedStringBuffer+1
  3250                           
  3251                           ;4sw1fan.c: 569: integerSpeed = atoi(dimmerSpeedStringBuffer);
  3252  0D90  303B               	movlw	(low (applianceControl@dimmerSpeedStringBuffer| 0))& (0+255)
  3253  0D91  3186  263E  318D   	fcall	_atoi
  3254  0D94  0020               	movlb	0	; select bank0
  3255  0D95  0827               	movf	?_atoi+1,w
  3256  0D96  00B7               	movwf	applianceControl@integerSpeed+1
  3257  0D97  0826               	movf	?_atoi,w
  3258  0D98  00B6               	movwf	applianceControl@integerSpeed
  3259                           
  3260                           ;4sw1fan.c: 573: parentalLockBuffer[integerSwitchNumber] = charParentalControl;
  3261  0D99  0832               	movf	applianceControl@charParentalControl,w
  3262  0D9A  00B4               	movwf	??_applianceControl
  3263  0D9B  083F               	movf	applianceControl@integerSwitchNumber,w
  3264  0D9C  3EC0               	addlw	(low (_parentalLockBuffer| 0))& (0+255)
  3265  0D9D  0086               	movwf	6
  3266  0D9E  0187               	clrf	7
  3267  0D9F  0834               	movf	??_applianceControl,w
  3268  0DA0  0081               	movwf	1
  3269                           
  3270                           ;4sw1fan.c: 576: copy_parentalLockBuffer[integerSwitchNumber]=parentalLockBuffer[integer
      +                          SwitchNumber];
  3271  0DA1  083F               	movf	applianceControl@integerSwitchNumber,w
  3272  0DA2  3EC0               	addlw	(low (_parentalLockBuffer| 0))& (0+255)
  3273  0DA3  0086               	movwf	6
  3274  0DA4  0187               	clrf	7
  3275  0DA5  0801               	movf	1,w
  3276  0DA6  00B4               	movwf	??_applianceControl
  3277  0DA7  083F               	movf	applianceControl@integerSwitchNumber,w
  3278  0DA8  3EB0               	addlw	(low (_copy_parentalLockBuffer| 0))& (0+255)
  3279  0DA9  0086               	movwf	6
  3280  0DAA  0187               	clrf	7
  3281  0DAB  0834               	movf	??_applianceControl,w
  3282  0DAC  0081               	movwf	1
  3283                           
  3284                           ;4sw1fan.c: 583: currentStateBufferPositions = ((1+4*(integerSwitchNumber))-5);
  3285  0DAD  0840               	movf	applianceControl@integerSwitchNumber+1,w
  3286  0DAE  00B5               	movwf	??_applianceControl+1
  3287  0DAF  083F               	movf	applianceControl@integerSwitchNumber,w
  3288  0DB0  00B4               	movwf	??_applianceControl
  3289  0DB1  35B4               	lslf	??_applianceControl,f
  3290  0DB2  0DB5               	rlf	??_applianceControl+1,f
  3291  0DB3  35B4               	lslf	??_applianceControl,f
  3292  0DB4  0DB5               	rlf	??_applianceControl+1,f
  3293  0DB5  0834               	movf	??_applianceControl,w
  3294  0DB6  3EFC               	addlw	252
  3295  0DB7  00BD               	movwf	applianceControl@currentStateBufferPositions
  3296  0DB8  30FF               	movlw	255
  3297  0DB9  3D35               	addwfc	??_applianceControl+1,w
  3298  0DBA  00BE               	movwf	applianceControl@currentStateBufferPositions+1
  3299                           
  3300                           ;4sw1fan.c: 584: currentStateBuffer[currentStateBufferPositions++] = 'G';
  3301  0DBB  3047               	movlw	71
  3302  0DBC  00B4               	movwf	??_applianceControl
  3303  0DBD  083D               	movf	applianceControl@currentStateBufferPositions,w
  3304  0DBE  3EA0               	addlw	(low (_currentStateBuffer| (0+256)))& (0+255)
  3305  0DBF  0086               	movwf	6
  3306  0DC0  3001               	movlw	1	; select bank3/4
  3307  0DC1  0087               	movwf	7
  3308  0DC2  0834               	movf	??_applianceControl,w
  3309  0DC3  0081               	movwf	1
  3310  0DC4  3001               	movlw	1
  3311  0DC5  07BD               	addwf	applianceControl@currentStateBufferPositions,f
  3312  0DC6  3000               	movlw	0
  3313  0DC7  3DBE               	addwfc	applianceControl@currentStateBufferPositions+1,f
  3314                           
  3315                           ;4sw1fan.c: 585: currentStateBuffer[currentStateBufferPositions++] = charSwitchSTATE;
  3316  0DC8  082F               	movf	applianceControl@charSwitchSTATE,w
  3317  0DC9  00B4               	movwf	??_applianceControl
  3318  0DCA  083D               	movf	applianceControl@currentStateBufferPositions,w
  3319  0DCB  3EA0               	addlw	(low (_currentStateBuffer| (0+256)))& (0+255)
  3320  0DCC  0086               	movwf	6
  3321  0DCD  3001               	movlw	1	; select bank3/4
  3322  0DCE  0087               	movwf	7
  3323  0DCF  0834               	movf	??_applianceControl,w
  3324  0DD0  0081               	movwf	1
  3325  0DD1  3001               	movlw	1
  3326  0DD2  07BD               	addwf	applianceControl@currentStateBufferPositions,f
  3327  0DD3  3000               	movlw	0
  3328  0DD4  3DBE               	addwfc	applianceControl@currentStateBufferPositions+1,f
  3329                           
  3330                           ;4sw1fan.c: 586: currentStateBuffer[currentStateBufferPositions++] = charSwitchMSB;
  3331  0DD5  0838               	movf	applianceControl@charSwitchMSB,w
  3332  0DD6  00B4               	movwf	??_applianceControl
  3333  0DD7  083D               	movf	applianceControl@currentStateBufferPositions,w
  3334  0DD8  3EA0               	addlw	(low (_currentStateBuffer| (0+256)))& (0+255)
  3335  0DD9  0086               	movwf	6
  3336  0DDA  3001               	movlw	1	; select bank3/4
  3337  0DDB  0087               	movwf	7
  3338  0DDC  0834               	movf	??_applianceControl,w
  3339  0DDD  0081               	movwf	1
  3340  0DDE  3001               	movlw	1
  3341  0DDF  07BD               	addwf	applianceControl@currentStateBufferPositions,f
  3342  0DE0  3000               	movlw	0
  3343  0DE1  3DBE               	addwfc	applianceControl@currentStateBufferPositions+1,f
  3344                           
  3345                           ;4sw1fan.c: 587: currentStateBuffer[currentStateBufferPositions] = charSwitchLSB;
  3346  0DE2  082E               	movf	applianceControl@charSwitchLSB,w
  3347  0DE3  00B4               	movwf	??_applianceControl
  3348  0DE4  083D               	movf	applianceControl@currentStateBufferPositions,w
  3349  0DE5  3EA0               	addlw	(low (_currentStateBuffer| (0+256)))& (0+255)
  3350  0DE6  0086               	movwf	6
  3351  0DE7  3001               	movlw	1	; select bank3/4
  3352  0DE8  0087               	movwf	7
  3353  0DE9  0834               	movf	??_applianceControl,w
  3354  0DEA  0081               	movwf	1
  3355                           
  3356                           ;4sw1fan.c: 589: currentStateBufferPositions-=3;
  3357  0DEB  30FD               	movlw	253
  3358  0DEC  07BD               	addwf	applianceControl@currentStateBufferPositions,f
  3359  0DED  30FF               	movlw	255
  3360  0DEE  3DBE               	addwfc	applianceControl@currentStateBufferPositions+1,f
  3361                           
  3362                           ;4sw1fan.c: 590: if(charFinalFrameState=='1')
  3363  0DEF  3031               	movlw	49
  3364  0DF0  0633               	xorwf	applianceControl@charFinalFrameState,w
  3365  0DF1  1D03               	btfss	3,2
  3366  0DF2  2FE8               	goto	l2902
  3367                           
  3368                           ;4sw1fan.c: 591: {
  3369                           ;4sw1fan.c: 592: sendAcknowledgment(currentStateBuffer+currentStateBufferPositions);
  3370  0DF3  083D               	movf	applianceControl@currentStateBufferPositions,w
  3371  0DF4  3EA0               	addlw	(low (_currentStateBuffer| (0+256)))& (0+255)
  3372  0DF5  318A  22BE  318D   	fcall	_sendAcknowledgment
  3373                           
  3374                           ;4sw1fan.c: 593: if(integerSwitchNumber!=5){
  3375  0DF8  3005               	movlw	5
  3376  0DF9  0020               	movlb	0	; select bank0
  3377  0DFA  063F               	xorwf	applianceControl@integerSwitchNumber,w
  3378  0DFB  0440               	iorwf	applianceControl@integerSwitchNumber+1,w
  3379  0DFC  1903               	btfsc	3,2
  3380  0DFD  2E62               	goto	l2814
  3381                           
  3382                           ;4sw1fan.c: 594: _delay((unsigned long)((5)*(16000000/4000.0)));
  3383  0DFE  301A               	movlw	26
  3384  0DFF  0020               	movlb	0	; select bank0
  3385  0E00  00B4               	movwf	??_applianceControl
  3386  0E01  30F8               	movlw	248
  3387  0E02                     u4347:	
  3388  0E02  0B89               	decfsz	9,f
  3389  0E03  2E02               	goto	u4347
  3390  0E04  0BB4               	decfsz	??_applianceControl,f
  3391  0E05  2E02               	goto	u4347
  3392  0E06  0000               	nop
  3393                           
  3394                           ;4sw1fan.c: 595: TX2REG = '(' ;
  3395  0E07  3028               	movlw	40
  3396  0E08  0029               	movlb	9	; select bank9
  3397  0E09  0092               	movwf	18	;volatile
  3398                           
  3399                           ;4sw1fan.c: 596: _delay((unsigned long)((1)*(16000000/4000.0)));
  3400  0E0A  3006               	movlw	6
  3401  0E0B  0020               	movlb	0	; select bank0
  3402  0E0C  00B4               	movwf	??_applianceControl
  3403  0E0D  3030               	movlw	48
  3404  0E0E                     u4357:	
  3405  0E0E  0B89               	decfsz	9,f
  3406  0E0F  2E0E               	goto	u4357
  3407  0E10  0BB4               	decfsz	??_applianceControl,f
  3408  0E11  2E0E               	goto	u4357
  3409  0E12  0000               	nop
  3410                           
  3411                           ;4sw1fan.c: 597: TX2REG = 'd' ;
  3412  0E13  3064               	movlw	100
  3413  0E14  0029               	movlb	9	; select bank9
  3414  0E15  0092               	movwf	18	;volatile
  3415                           
  3416                           ;4sw1fan.c: 598: _delay((unsigned long)((1)*(16000000/4000.0)));
  3417  0E16  3006               	movlw	6
  3418  0E17  0020               	movlb	0	; select bank0
  3419  0E18  00B4               	movwf	??_applianceControl
  3420  0E19  3030               	movlw	48
  3421  0E1A                     u4367:	
  3422  0E1A  0B89               	decfsz	9,f
  3423  0E1B  2E1A               	goto	u4367
  3424  0E1C  0BB4               	decfsz	??_applianceControl,f
  3425  0E1D  2E1A               	goto	u4367
  3426  0E1E  0000               	nop
  3427                           
  3428                           ;4sw1fan.c: 599: TX2REG =charSwitchLSB + 16 ;
  3429  0E1F  0020               	movlb	0	; select bank0
  3430  0E20  082E               	movf	applianceControl@charSwitchLSB,w
  3431  0E21  3E10               	addlw	16
  3432  0E22  0029               	movlb	9	; select bank9
  3433  0E23  0092               	movwf	18	;volatile
  3434                           
  3435                           ;4sw1fan.c: 600: _delay((unsigned long)((1)*(16000000/4000.0)));
  3436  0E24  3006               	movlw	6
  3437  0E25  0020               	movlb	0	; select bank0
  3438  0E26  00B4               	movwf	??_applianceControl
  3439  0E27  3030               	movlw	48
  3440  0E28                     u4377:	
  3441  0E28  0B89               	decfsz	9,f
  3442  0E29  2E28               	goto	u4377
  3443  0E2A  0BB4               	decfsz	??_applianceControl,f
  3444  0E2B  2E28               	goto	u4377
  3445  0E2C  0000               	nop
  3446                           
  3447                           ;4sw1fan.c: 601: TX2REG=charSwitchSTATE;
  3448  0E2D  0020               	movlb	0	; select bank0
  3449  0E2E  082F               	movf	applianceControl@charSwitchSTATE,w
  3450  0E2F  0029               	movlb	9	; select bank9
  3451  0E30  0092               	movwf	18	;volatile
  3452                           
  3453                           ;4sw1fan.c: 602: _delay((unsigned long)((1)*(16000000/4000.0)));
  3454  0E31  3006               	movlw	6
  3455  0E32  0020               	movlb	0	; select bank0
  3456  0E33  00B4               	movwf	??_applianceControl
  3457  0E34  3030               	movlw	48
  3458  0E35                     u4387:	
  3459  0E35  0B89               	decfsz	9,f
  3460  0E36  2E35               	goto	u4387
  3461  0E37  0BB4               	decfsz	??_applianceControl,f
  3462  0E38  2E35               	goto	u4387
  3463  0E39  0000               	nop
  3464                           
  3465                           ;4sw1fan.c: 603: TX2REG='0';
  3466  0E3A  3030               	movlw	48
  3467  0E3B  0029               	movlb	9	; select bank9
  3468  0E3C  0092               	movwf	18	;volatile
  3469                           
  3470                           ;4sw1fan.c: 604: _delay((unsigned long)((1)*(16000000/4000.0)));
  3471  0E3D  3006               	movlw	6
  3472  0E3E  0020               	movlb	0	; select bank0
  3473  0E3F  00B4               	movwf	??_applianceControl
  3474  0E40  3030               	movlw	48
  3475  0E41                     u4397:	
  3476  0E41  0B89               	decfsz	9,f
  3477  0E42  2E41               	goto	u4397
  3478  0E43  0BB4               	decfsz	??_applianceControl,f
  3479  0E44  2E41               	goto	u4397
  3480  0E45  0000               	nop
  3481                           
  3482                           ;4sw1fan.c: 605: TX2REG='0';
  3483  0E46  3030               	movlw	48
  3484  0E47  0029               	movlb	9	; select bank9
  3485  0E48  0092               	movwf	18	;volatile
  3486                           
  3487                           ;4sw1fan.c: 606: _delay((unsigned long)((1)*(16000000/4000.0)));
  3488  0E49  3006               	movlw	6
  3489  0E4A  0020               	movlb	0	; select bank0
  3490  0E4B  00B4               	movwf	??_applianceControl
  3491  0E4C  3030               	movlw	48
  3492  0E4D                     u4407:	
  3493  0E4D  0B89               	decfsz	9,f
  3494  0E4E  2E4D               	goto	u4407
  3495  0E4F  0BB4               	decfsz	??_applianceControl,f
  3496  0E50  2E4D               	goto	u4407
  3497  0E51  0000               	nop
  3498                           
  3499                           ;4sw1fan.c: 607: TX2REG='0';
  3500  0E52  3030               	movlw	48
  3501  0E53  0029               	movlb	9	; select bank9
  3502  0E54  0092               	movwf	18	;volatile
  3503                           
  3504                           ;4sw1fan.c: 608: _delay((unsigned long)((1)*(16000000/4000.0)));
  3505  0E55  3006               	movlw	6
  3506  0E56  0020               	movlb	0	; select bank0
  3507  0E57  00B4               	movwf	??_applianceControl
  3508  0E58  3030               	movlw	48
  3509  0E59                     u4417:	
  3510  0E59  0B89               	decfsz	9,f
  3511  0E5A  2E59               	goto	u4417
  3512  0E5B  0BB4               	decfsz	??_applianceControl,f
  3513  0E5C  2E59               	goto	u4417
  3514  0E5D  0000               	nop
  3515                           
  3516                           ;4sw1fan.c: 609: TX2REG=')';
  3517  0E5E  3029               	movlw	41
  3518  0E5F  0029               	movlb	9	; select bank9
  3519  0E60  0092               	movwf	18	;volatile
  3520                           
  3521                           ;4sw1fan.c: 610: }
  3522  0E61  2FE8               	goto	l2902
  3523  0E62                     l2814:	
  3524                           
  3525                           ;4sw1fan.c: 611: else if(integerSwitchNumber==5) {
  3526  0E62  3005               	movlw	5
  3527  0E63  0020               	movlb	0	; select bank0
  3528  0E64  063F               	xorwf	applianceControl@integerSwitchNumber,w
  3529  0E65  0440               	iorwf	applianceControl@integerSwitchNumber+1,w
  3530  0E66  1903               	btfsc	3,2
  3531  0E67  2ECF               	goto	l2834
  3532  0E68  2FE8               	goto	l2902
  3533  0E69                     l2818:	
  3534                           ;4sw1fan.c: 613: case 0: {
  3535                           
  3536                           ;4sw1fan.c: 612: switch(integerSwitchState){
  3537                           
  3538                           
  3539                           ;4sw1fan.c: 614: send_Response_To_Touch('P','0','0');
  3540  0E69  3030               	movlw	48
  3541  0E6A  00B4               	movwf	??_applianceControl
  3542  0E6B  0834               	movf	??_applianceControl,w
  3543  0E6C  00A0               	movwf	send_Response_To_Touch@switch_status
  3544  0E6D  3030               	movlw	48
  3545  0E6E  00B5               	movwf	??_applianceControl+1
  3546  0E6F  0835               	movf	??_applianceControl+1,w
  3547  0E70  00A1               	movwf	send_Response_To_Touch@fan_speed
  3548  0E71  3050               	movlw	80
  3549  0E72  3186  26A9  318D   	fcall	_send_Response_To_Touch
  3550                           
  3551                           ;4sw1fan.c: 615: } break;
  3552  0E75  2FE8               	goto	l2902
  3553  0E76                     l2820:	
  3554                           ;4sw1fan.c: 619: case '0':
  3555                           
  3556                           ;4sw1fan.c: 618: switch(chDimmerSpeedMSB){
  3557                           
  3558                           ;4sw1fan.c: 617: case 1: {
  3559                           
  3560                           
  3561                           ;4sw1fan.c: 620: {
  3562                           ;4sw1fan.c: 621: send_Response_To_Touch('P','1','1');
  3563  0E76  3031               	movlw	49
  3564  0E77  0020               	movlb	0	; select bank0
  3565  0E78  00B4               	movwf	??_applianceControl
  3566  0E79  0834               	movf	??_applianceControl,w
  3567  0E7A  00A0               	movwf	send_Response_To_Touch@switch_status
  3568  0E7B  3031               	movlw	49
  3569  0E7C  00B5               	movwf	??_applianceControl+1
  3570  0E7D  0835               	movf	??_applianceControl+1,w
  3571  0E7E  00A1               	movwf	send_Response_To_Touch@fan_speed
  3572  0E7F  3050               	movlw	80
  3573  0E80  3186  26A9  318D   	fcall	_send_Response_To_Touch
  3574                           
  3575                           ;4sw1fan.c: 622: }
  3576                           ;4sw1fan.c: 623: break;
  3577  0E83  2FE8               	goto	l2902
  3578  0E84                     l2822:	
  3579                           ;4sw1fan.c: 624: case '2':
  3580                           
  3581                           
  3582                           ;4sw1fan.c: 625: {
  3583                           ;4sw1fan.c: 626: send_Response_To_Touch('P','1','1');
  3584  0E84  3031               	movlw	49
  3585  0E85  0020               	movlb	0	; select bank0
  3586  0E86  00B4               	movwf	??_applianceControl
  3587  0E87  0834               	movf	??_applianceControl,w
  3588  0E88  00A0               	movwf	send_Response_To_Touch@switch_status
  3589  0E89  3031               	movlw	49
  3590  0E8A  00B5               	movwf	??_applianceControl+1
  3591  0E8B  0835               	movf	??_applianceControl+1,w
  3592  0E8C  00A1               	movwf	send_Response_To_Touch@fan_speed
  3593  0E8D  3050               	movlw	80
  3594  0E8E  3186  26A9  318D   	fcall	_send_Response_To_Touch
  3595                           
  3596                           ;4sw1fan.c: 627: }
  3597                           ;4sw1fan.c: 628: break;
  3598  0E91  2FE8               	goto	l2902
  3599  0E92                     l2824:	
  3600                           ;4sw1fan.c: 629: case '5':
  3601                           
  3602                           
  3603                           ;4sw1fan.c: 630: {
  3604                           ;4sw1fan.c: 631: send_Response_To_Touch('P','1','2');
  3605  0E92  3031               	movlw	49
  3606  0E93  0020               	movlb	0	; select bank0
  3607  0E94  00B4               	movwf	??_applianceControl
  3608  0E95  0834               	movf	??_applianceControl,w
  3609  0E96  00A0               	movwf	send_Response_To_Touch@switch_status
  3610  0E97  3032               	movlw	50
  3611  0E98  00B5               	movwf	??_applianceControl+1
  3612  0E99  0835               	movf	??_applianceControl+1,w
  3613  0E9A  00A1               	movwf	send_Response_To_Touch@fan_speed
  3614  0E9B  3050               	movlw	80
  3615  0E9C  3186  26A9  318D   	fcall	_send_Response_To_Touch
  3616                           
  3617                           ;4sw1fan.c: 632: }
  3618                           ;4sw1fan.c: 633: break;
  3619  0E9F  2FE8               	goto	l2902
  3620  0EA0                     l2826:	
  3621                           ;4sw1fan.c: 634: case '7':
  3622                           
  3623                           
  3624                           ;4sw1fan.c: 635: {
  3625                           ;4sw1fan.c: 636: send_Response_To_Touch('P','1','3');
  3626  0EA0  3031               	movlw	49
  3627  0EA1  0020               	movlb	0	; select bank0
  3628  0EA2  00B4               	movwf	??_applianceControl
  3629  0EA3  0834               	movf	??_applianceControl,w
  3630  0EA4  00A0               	movwf	send_Response_To_Touch@switch_status
  3631  0EA5  3033               	movlw	51
  3632  0EA6  00B5               	movwf	??_applianceControl+1
  3633  0EA7  0835               	movf	??_applianceControl+1,w
  3634  0EA8  00A1               	movwf	send_Response_To_Touch@fan_speed
  3635  0EA9  3050               	movlw	80
  3636  0EAA  3186  26A9  318D   	fcall	_send_Response_To_Touch
  3637                           
  3638                           ;4sw1fan.c: 637: }
  3639                           ;4sw1fan.c: 638: break;
  3640  0EAD  2FE8               	goto	l2902
  3641  0EAE                     l2828:	
  3642                           ;4sw1fan.c: 639: case '9':
  3643                           
  3644                           
  3645                           ;4sw1fan.c: 640: {
  3646                           ;4sw1fan.c: 641: send_Response_To_Touch('P','1','4');
  3647  0EAE  3031               	movlw	49
  3648  0EAF  0020               	movlb	0	; select bank0
  3649  0EB0  00B4               	movwf	??_applianceControl
  3650  0EB1  0834               	movf	??_applianceControl,w
  3651  0EB2  00A0               	movwf	send_Response_To_Touch@switch_status
  3652  0EB3  3034               	movlw	52
  3653  0EB4  00B5               	movwf	??_applianceControl+1
  3654  0EB5  0835               	movf	??_applianceControl+1,w
  3655  0EB6  00A1               	movwf	send_Response_To_Touch@fan_speed
  3656  0EB7  3050               	movlw	80
  3657  0EB8  3186  26A9  318D   	fcall	_send_Response_To_Touch
  3658                           
  3659                           ;4sw1fan.c: 647: }
  3660                           
  3661                           ;4sw1fan.c: 646: break;
  3662                           
  3663                           ;4sw1fan.c: 645: default:
  3664                           
  3665                           ;4sw1fan.c: 643: }
  3666                           ;4sw1fan.c: 644: break;
  3667  0EBB  2FE8               	goto	l2902
  3668  0EBC                     l2832:	
  3669  0EBC  0020               	movlb	0	; select bank0
  3670  0EBD  0830               	movf	applianceControl@chDimmerSpeedMSB,w
  3671                           
  3672                           ; Switch size 1, requested type "space"
  3673                           ; Number of cases is 5, Range of values is 48 to 57
  3674                           ; switch strategies available:
  3675                           ; Name         Instructions Cycles
  3676                           ; simple_byte           16     9 (average)
  3677                           ; direct_byte           29     9 (fixed)
  3678                           ; jumptable            263     9 (fixed)
  3679                           ;	Chosen strategy is simple_byte
  3680  0EBE  3A30               	xorlw	48	; case 48
  3681  0EBF  1903               	skipnz
  3682  0EC0  2E76               	goto	l2820
  3683  0EC1  3A02               	xorlw	2	; case 50
  3684  0EC2  1903               	skipnz
  3685  0EC3  2E84               	goto	l2822
  3686  0EC4  3A07               	xorlw	7	; case 53
  3687  0EC5  1903               	skipnz
  3688  0EC6  2E92               	goto	l2824
  3689  0EC7  3A02               	xorlw	2	; case 55
  3690  0EC8  1903               	skipnz
  3691  0EC9  2EA0               	goto	l2826
  3692  0ECA  3A0E               	xorlw	14	; case 57
  3693  0ECB  1903               	skipnz
  3694  0ECC  2EAE               	goto	l2828
  3695  0ECD  2FE8               	goto	l2902
  3696                           
  3697                           ;4sw1fan.c: 648: }
  3698                           ;4sw1fan.c: 649: }
  3699  0ECE  2FE8               	goto	l2902
  3700  0ECF                     l2834:	
  3701                           
  3702                           ; Switch on 2 bytes has been partitioned into a top level switch of size 1, and 1 sub-sw
      +                          itches
  3703                           ; Switch size 1, requested type "space"
  3704                           ; Number of cases is 1, Range of values is 0 to 0
  3705                           ; switch strategies available:
  3706                           ; Name         Instructions Cycles
  3707                           ; simple_byte            4     3 (average)
  3708                           ; direct_byte            8     6 (fixed)
  3709                           ; jumptable            260     6 (fixed)
  3710                           ;	Chosen strategy is simple_byte
  3711  0ECF  0842               	movf	applianceControl@integerSwitchState+1,w
  3712  0ED0  3A00               	xorlw	0	; case 0
  3713  0ED1  1903               	skipnz
  3714  0ED2  2ED4               	goto	l3396
  3715  0ED3  2FE8               	goto	l2902
  3716  0ED4                     l3396:	
  3717                           
  3718                           ; Switch size 1, requested type "space"
  3719                           ; Number of cases is 2, Range of values is 0 to 1
  3720                           ; switch strategies available:
  3721                           ; Name         Instructions Cycles
  3722                           ; simple_byte            7     4 (average)
  3723                           ; direct_byte           10     6 (fixed)
  3724                           ; jumptable            260     6 (fixed)
  3725                           ;	Chosen strategy is simple_byte
  3726  0ED4  0841               	movf	applianceControl@integerSwitchState,w
  3727  0ED5  3A00               	xorlw	0	; case 0
  3728  0ED6  1903               	skipnz
  3729  0ED7  2E69               	goto	l2818
  3730  0ED8  3A01               	xorlw	1	; case 1
  3731  0ED9  1903               	skipnz
  3732  0EDA  2EBC               	goto	l2832
  3733  0EDB  2FE8               	goto	l2902
  3734                           
  3735                           ;4sw1fan.c: 650: }
  3736                           ;4sw1fan.c: 651: }
  3737                           ;4sw1fan.c: 653: switch(integerSwitchNumber){
  3738  0EDC  2FE8               	goto	l2902
  3739  0EDD                     l276:	
  3740                           ;4sw1fan.c: 654: case 1:
  3741                           
  3742                           
  3743                           ;4sw1fan.c: 655: {
  3744                           ;4sw1fan.c: 656: RF1 = integerSwitchState;
  3745  0EDD  1C41               	btfss	applianceControl@integerSwitchState,0
  3746  0EDE  2EE2               	goto	u2880
  3747  0EDF  0025               	movlb	5	; select bank5
  3748  0EE0  148C               	bsf	12,1	;volatile
  3749  0EE1  0008               	return
  3750  0EE2                     u2880:	
  3751  0EE2  0025               	movlb	5	; select bank5
  3752  0EE3  108C               	bcf	12,1	;volatile
  3753                           
  3754                           ;4sw1fan.c: 657: }
  3755                           ;4sw1fan.c: 658: break;
  3756  0EE4  0008               	return
  3757  0EE5                     l278:	
  3758                           ;4sw1fan.c: 659: case 2:
  3759                           
  3760                           
  3761                           ;4sw1fan.c: 660: {
  3762                           ;4sw1fan.c: 661: RF0 = integerSwitchState;
  3763  0EE5  1C41               	btfss	applianceControl@integerSwitchState,0
  3764  0EE6  2EEA               	goto	u2900
  3765  0EE7  0025               	movlb	5	; select bank5
  3766  0EE8  140C               	bsf	12,0	;volatile
  3767  0EE9  0008               	return
  3768  0EEA                     u2900:	
  3769  0EEA  0025               	movlb	5	; select bank5
  3770  0EEB  100C               	bcf	12,0	;volatile
  3771                           
  3772                           ;4sw1fan.c: 663: break;
  3773  0EEC  0008               	return
  3774  0EED                     l279:	
  3775                           ;4sw1fan.c: 664: }
  3776                           ;4sw1fan.c: 665: case 3:
  3777                           
  3778                           
  3779                           ;4sw1fan.c: 666: {
  3780                           ;4sw1fan.c: 667: RA3 = integerSwitchState;
  3781  0EED  1C41               	btfss	applianceControl@integerSwitchState,0
  3782  0EEE  2EF2               	goto	u2920
  3783  0EEF  0020               	movlb	0	; select bank0
  3784  0EF0  158C               	bsf	12,3	;volatile
  3785  0EF1  0008               	return
  3786  0EF2                     u2920:	
  3787  0EF2  0020               	movlb	0	; select bank0
  3788  0EF3  118C               	bcf	12,3	;volatile
  3789                           
  3790                           ;4sw1fan.c: 668: }
  3791                           ;4sw1fan.c: 669: break;
  3792  0EF4  0008               	return
  3793  0EF5                     l280:	
  3794                           ;4sw1fan.c: 670: case 4:
  3795                           
  3796                           
  3797                           ;4sw1fan.c: 671: {
  3798                           ;4sw1fan.c: 672: RA2 = integerSwitchState;
  3799  0EF5  1C41               	btfss	applianceControl@integerSwitchState,0
  3800  0EF6  2EFA               	goto	u2940
  3801  0EF7  0020               	movlb	0	; select bank0
  3802  0EF8  150C               	bsf	12,2	;volatile
  3803  0EF9  0008               	return
  3804  0EFA                     u2940:	
  3805  0EFA  0020               	movlb	0	; select bank0
  3806  0EFB  110C               	bcf	12,2	;volatile
  3807                           
  3808                           ;4sw1fan.c: 673: }
  3809                           ;4sw1fan.c: 674: break;
  3810  0EFC  0008               	return
  3811  0EFD                     l2836:	
  3812                           ;4sw1fan.c: 675: case 5:
  3813                           
  3814                           
  3815                           ;4sw1fan.c: 676: {
  3816                           ;4sw1fan.c: 677: if(integerSwitchState==0){
  3817  0EFD  0841               	movf	applianceControl@integerSwitchState,w
  3818  0EFE  0442               	iorwf	applianceControl@integerSwitchState+1,w
  3819  0EFF  1D03               	btfss	3,2
  3820  0F00  2F21               	goto	l2846
  3821                           
  3822                           ;4sw1fan.c: 679: RE5=0;
  3823  0F01  1290               	bcf	16,5	;volatile
  3824                           
  3825                           ;4sw1fan.c: 680: _delay((unsigned long)((1000)*(16000000/4000.0)));
  3826  0F02  3015               	movlw	21
  3827  0F03  0020               	movlb	0	; select bank0
  3828  0F04  00B5               	movwf	??_applianceControl+1
  3829  0F05  304B               	movlw	75
  3830  0F06  00B4               	movwf	??_applianceControl
  3831  0F07  30BE               	movlw	190
  3832  0F08                     u4427:	
  3833  0F08  0B89               	decfsz	9,f
  3834  0F09  2F08               	goto	u4427
  3835  0F0A  0BB4               	decfsz	??_applianceControl,f
  3836  0F0B  2F08               	goto	u4427
  3837  0F0C  0BB5               	decfsz	??_applianceControl+1,f
  3838  0F0D  2F08               	goto	u4427
  3839  0F0E  0000               	nop
  3840                           
  3841                           ;4sw1fan.c: 681: RE4=0;
  3842  0F0F  0020               	movlb	0	; select bank0
  3843  0F10  1210               	bcf	16,4	;volatile
  3844                           
